:020000040800F2
:1000000000500020F92700084D260008532600085C
:10001000592600085F260008652600080000000039
:100020000000000000000000000000006B26000837
:100030007726000800000000832600088F260008AD
:1000400041280008412800084128000841280008EC
:100050004128000841280008412800089B26000884
:10006000A9260008B7260008C52600084128000870
:1000700041280008412800084128000841280008BC
:1000800041280008412800084128000841280008AC
:10009000412800084128000841280008D32600080C
:1000A000E1260008F5260008092700081D2700089A
:1000B0003127000845270008592700084128000873
:1000C000412800084128000841280008412800086C
:1000D000412800086D270008412800084128000831
:1000E00041280008412800084128000800000000BD
:1000F0000000000000000000000000000000000000
:0C01000000000000000000005FF808F1A3
:10010C0010B5054C237833B9044B13B10448AFF345
:10011C0000800123237010BD70020020000000003D
:10012C009C77000808B5034B1BB103490348AFF398
:10013C00008008BD00000000740200209C770008BD
:10014C0010F8012B11F8013B012A28BF9A42F7D075
:10015C00D01A7047034613F8012B002AFBD1181A4A
:10016C0001387047F0B593B00CAF904B00221A6079
:10017C008F4B01221A608F4B00221A608E48FFF7BA
:10018C00E9FF03469AB20A238B498C4805F0B4F96F
:10019C004FF4967002F0B2FB00F008FA8848FFF7B3
:1001AC00D9FF03469AB20A238549844805F0A4F97D
:1001BC00642002F0A3FB00F0F9F97E4B00221A60D8
:1001CC008048FFF7C7FF03469AB20A237D497B4854
:1001DC0005F092F94FF4967002F090FB00F0E6F9FE
:1001EC00794B1B68002B03F00103B8BF5B42774AC5
:1001FC001360774B1B68002B03F00103B8BF5B4205
:10020C00744A1360744B1B68002B03F00103B8BFD6
:10021C005B42724A1360724B1B68002B03F00103A4
:10022C00B8BF5B426F4A13604FF480716E4803F0A5
:10023C000DFB03467B617B69012B02D100237B61A3
:10024C0001E001237B614FF48041684803F0FEFA22
:10025C0003463B613B69012B02D100233B6101E06A
:10026C0001233B614FF40041604803F0EFFA034671
:10027C00FB60FB68012B02D10023FB6001E0012332
:10028C00FB605B4B9B789C46594BDB789E46584BEE
:10029C001B787B60564B5B783B60564B1B68564A11
:1002AC0012684A4909684B4800684C4C24684D4D0B
:1002BC002D68FE680A963E6909967E690896079530
:1002CC00069405900491039202933A6801927B681C
:1002DC000093734662464949494806F0F7F8494885
:1002EC0004F0DEFC484B00221A60464B1B680022CF
:1002FC005A624348FFF72EFF03469AB24FF4FA7343
:10030C003F492E4805F0F8F807E03F4B1B68012BDE
:10031C0003D13C4804F0C4FCE1E7264B1B68002BDE
:10032C00F3D0394B00221A60364B1B6800225A62FC
:10033C00344804F007FD334804F0B2FC324B002281
:10034C001A60304B1B6800225A623048FFF702FFDC
:10035C0003469AB20A232D49184805F0CDF807E058
:10036C00294B1B68012B03D1264804F099FCE2E7CA
:10037C00104B1B68002BF3D0234B00221A60214B2F
:10038C001B6800225A621F4804F0DCFC074B012258
:10039C001A60074B00221A603C220021184806F014
:1003AC00E1F800BF1C37BD46F0BD00BFE0040020E3
:1003BC00D4040020E4040020F40000206004002099
:1003CC001C0100204401002028050020700500209D
:1003DC002C05002074050020300500207805002035
:1003EC00F00100207C05002000080140000C0140B9
:1003FC00F0050020280600202C060020B477000809
:10040C004006002018040020900600206C010020FB
:10041C0080B500AF584B00221A60584B01221A606D
:10042C00574B00221A605748FFF794FE03469AB2C6
:10043C000A235449544805F05FF800BF504B1B6821
:10044C00002BFBD04E4B00221A605048FFF782FE67
:10045C0003469AB20A234D494B4805F04DF800BFAC
:10046C00474B1B68002BFBD0454B00221A604848B9
:10047C0004F016FC474B00221A60454B1B68002207
:10048C005A624548FFF766FE03469AB20A23424970
:10049C003D4805F031F807E03E4B1B68012B03D1BA
:1004AC003B4804F0FDFBE2E7354B1B68002BF3D017
:1004BC00384B00221A60364B1B6800225A623448B3
:1004CC0004F040FC2E4B00221A603448FFF742FE29
:1004DC0003469AB20A2331492B4805F00DF800BFA8
:1004EC00274B1B68002BFBD0254B00221A602C4895
:1004FC00FFF730FE03469AB20A232949224804F03A
:10050C00FBFF642002F0FAF92648FFF723FE0346AE
:10051C009AB20A2323491C4804F0EEFF00BF184B83
:10052C001B68002BFBD0144B01221A60134B0022CA
:10053C001A601D4B00221A6028220021114806F077
:10054C0011F8282200210F4806F00CF8282200216F
:10055C000C4806F007F8462200210A4806F002F87B
:10056C0028220021074805F0FDFF2822002105481C
:10057C0005F0F8FF00BF80BDE0040020D40400208B
:10058C00E404002034000020600400205C00002003
:10059C00180400209006002084000020AC000020ED
:1005AC0094010020BC010020F804002080B582B02A
:1005BC0000AF914B1B68002B03F00103B8BF5B42EB
:1005CC00002B02D0012B62D012E18C4B00221A704E
:1005DC008B4B01221A608B4B00221A6001224FF4C4
:1005EC008051894803F049F900224FF400518648A4
:1005FC0003F043F9854B1B68854A1360854B1B68D8
:10060C00854A1360854B1B68854A13607F4B1B68BA
:10061C00002B03F00103B8BF5B42012B06D1002273
:10062C004FF400617F4803F028F905E001224FF4F4
:10063C0000617C4803F021F9764B1B68002B03F01A
:10064C000103B8BF5B42012B06D100224FF480514D
:10065C00744803F012F905E001224FF480517148FF
:10066C0003F00BF96D4B1B68002B03F00103B8BFB3
:10067C005B42012B05D1002201216A4803F0FDF8F1
:10068C00B6E001220121674803F0F7F8B0E0664BB1
:10069C001B68012B03D1594B01221A7002E0574BF6
:1006AC0000221A70574B01221A60554B00221A6017
:1006BC0000224FF48051544803F0DFF801224FF42C
:1006CC000051514803F0D9F8514B1B68002B03F033
:1006DC000103B8BF5B421A464C4B1B68002B03F05E
:1006EC000103B8BF5B429A4221D14B4B1B68002BD4
:1006FC0003F00103B8BF5B421A46464B1B68002B44
:10070C0003F00103B8BF5B429A4210D1444B1B6803
:10071C00002B03F00103B8BF5B421A463F4B1B682A
:10072C00002B03F00103B8BF5B429A4201D00123B6
:10073C0000E000237B60354B1B68354A1360354B5A
:10074C001B68354A1360354B1B68354A13607B6850
:10075C00002B02D0354B01221A60354B1A68354BF1
:10076C001B689A4209DD00224FF400612D4803F00A
:10077C0084F8264B01221A6008E001224FF4006134
:10078C00284803F07AF8214B00221A602A4BDB78B8
:10079C001A462A4B1B689A4209DD00224FF48051FD
:1007AC00204803F06AF81B4B01221A6008E0012272
:1007BC004FF480511B4803F060F8164B00221A606E
:1007CC001F4B1A681F4B1B689A4208DD002201213F
:1007DC00144803F052F8114B01221A6007E0012271
:1007EC000121104803F049F80C4B00221A6000BF9D
:1007FC0000BF0837BD4680BDF001002094060020E4
:10080C00F401002034050020000C014028050020D4
:10081C00980600202C0500209C06002030050020A6
:10082C00A0060020000801408C06002000020020D9
:10083C0028060020E4010020F0050020EC01002037
:10084C002C060020E801002080B584B000AF01F038
:10085C00F3FF00F081FA43F6982002F04FF800F015
:10086C00E5FC00F0B9FC00F07DFB00F04DFB00F066
:10087C00CBFB00F015FC00F0CBFA00F007FB00F00E
:10088C005DFC072002F0D5FCB04804F05BFAB048E0
:10089C0004F058FA0122AF49AF4804F0B0FEAF485B
:1008AC0004F0FEF905F0C0FD05F088FD03210020E1
:1008BC0005F09BFDAA4805F0F4FDFFF7A9FDFFF735
:1008CC0075FEA84B1B68002B10D0A64B00221A609B
:1008DC000023FB6007E0A44AFB68134400221A7053
:1008EC00FB680133FB60FB68272BF4D99F4B1B681B
:1008FC00002B5DD09D4B00221A6001F071FC0A2088
:10090C0001F0FCFF9A499B4801F012FC984B9B7834
:10091C001A46974BDB789849984805F0D7FD944BCD
:10092C001B781A46924B5B789549964805F0CEFD9C
:10093C00954802F0DFF8322001F0E0FF934802F016
:10094C00D9F8322001F0DAFF8F4802F0ADF90346F6
:10095C001A468F4B1A60322001F0D0FF8B4802F000
:10096C00A3F903461A468B4B1A60322001F0C6FFDE
:10097C00854802F06DF9854802F06AF9082002F00A
:10098C0058FC092002F055FC0A2002F052FC1720FA
:10099C0002F04FFCFFF7E6FB082002F03CFC0920BC
:1009AC0002F039FC0A2002F036FC172002F033FC6E
:1009BC00FFF7FCFD784B1B68002B80D0764B002298
:1009CC001A60764B1B685A4203F0030302F00302D1
:1009DC0058BF5342032B3FF672AF01A252F823F0DB
:1009EC00FD0900081F0A0008730C0008DD0C000844
:1009FC0005F0E4FC0021002005F0F7FC5F4805F051
:100A0C0050FD0021012005F0F0FC5E4805F049FD89
:100A1C007BE1634B1B68002B19D0624B4FF0FF320C
:100A2C001A60614B00221A60604B01221A605C4B09
:100A3C0000221A6005F0C2FC0121002005F0D5FC53
:100A4C005B4805F02EFD0021012005F0CEFC554B36
:100A5C001B680133534A1360534B1B680133524AD2
:100A6C001360514B1B68012B40F34D814E4B1B689F
:100A7C00022B02D14B4B00221A604E4B1B68092BE8
:100A8C000ADC4C4B1B68002B06DB4A4B1A68454BA7
:100A9C001B68D1B2484AD154464B1B680B2B00F251
:100AAC00DD8001A252F823F02D0B0008E50A0008A6
:100ABC00ED0A0008F50A0008FD0A0008050B0008FD
:100ACC000D0B0008150B00081D0B0008250B00086A
:100ADC00690C0008350B0008384805F0E2FCC1E051
:100AEC00364805F0DEFCBDE0344805F0DAFCB9E030
:100AFC00324805F0D6FCB5E0304805F0D2FCB1E048
:100B0C002E4805F0CEFCADE02C4805F0CAFCA9E05F
:100B1C002A4805F0C6FCA5E0284805F0C2FCA1E077
:100B2C00264805F0BEFC9DE001233B600023BB6022
:100B3C004BE0214ABB6813441A782149BB680B442B
:100B4C001B789A423ED000233B6041E08803002092
:100B5C00D0030020A80400206004002040030020E3
:100B6C00E47700083806002000050020300600203D
:100B7C00F00500208C050020F0770008000600200E
:100B8C0004780008140600208C020020BC0200200F
:100B9C00280600202C06002000020020FC0100206A
:100BAC000402002084060020880600203C06002059
:100BBC0014780008340600207C06002024780008F5
:100BCC0008020020BB680133BB60BB68052BB0DD9D
:100BDC0000237B6007E04D4A7B68134400221A70A7
:100BEC007B6801337B607B68052BF4DD3B68002B55
:100BFC0016D0474B02221A60464B01221A6005F0B0
:100C0C00DDFB0121002005F0F0FB434805F049FC19
:100C1C00424B01221A604FF4FA6001F06FFE21E0A2
:100C2C003B4B01221A603E4B01221A60394B0122C8
:100C3C001A6005F0C3FB0121002005F0D6FB3948F2
:100C4C0005F02FFC0121012005F0CFFB364805F003
:100C5C0028FC4FF4FA6001F051FE03E0334805F034
:100C6C0020FC00BF4FE005F0A9FB0021002005F09F
:100C7C00BCFB2F4805F015FC0021012005F0B5FB4D
:100C8C002C4B1B6803F00103002B03D02A4805F002
:100C9C0008FC02E0294805F004FC294B1B6803F012
:100CAC000103002B03D0244805F0FBFB02E0234892
:100CBC0005F0F7FB234B1B6803F00103002B03D05B
:100CCC001D4805F0EEFB20E01C4805F0EAFB1CE09B
:100CDC0005F074FB0521002005F087FB1A4805F090
:100CEC00E0FB0521012005F080FB184B1B6803F08D
:100CFC000103002B03D0164805F0D3FB05E0154883
:100D0C0005F0CFFB01E000BFD9E5D8E57C0600205B
:100D1C00FC01002000020020287800088C0600202E
:100D2C00040200203C7800084C7800085C7800082D
:100D3C006078000828050020707800087878000892
:100D4C002C0500203005002080780008F0010020E0
:100D5C00887800089078000880B594B000AF07F14F
:100D6C00280328220021184605F0FCFB07F1140388
:100D7C0000221A605A609A60DA601A613B1D0022E8
:100D8C001A605A609A60DA600123BB624FF48033B8
:100D9C00FB6200233B630123BB6302237B644FF4A0
:100DAC008033BB644FF4C013FB6407F1280318466F
:100DBC0003F060FA0346002B01D001F06FFA0F2309
:100DCC007B610223BB610023FB614FF480633B62B8
:100DDC0000237B6207F114030221184603F0CCFCBC
:100DEC000346002B01D001F059FA02237B604FF42B
:100DFC004043FB603B1D184603F04CFE0346002BA2
:100E0C0001D001F04BFA00BF5037BD4680BD000049
:100E1C0080B584B000AF3B1D00221A605A609A6006
:100E2C00184B194A1A60174B00229A60154B002276
:100E3C001A73144B00221A75124B4FF46022DA61AC
:100E4C00104B00225A600F4B01221A610D4801F021
:100E5C0079FD0346002B01D001F020FA06237B60BC
:100E6C000123BB600023FB603B1D1946054801F0C4
:100E7C0027FF0346002B01D001F010FA00BF1037FA
:100E8C00BD4680BD8C0200200024014080B584B09A
:100E9C0000AF3B1D00221A605A609A60184B194A29
:100EAC001A60174B00229A60154B00221A73144BD0
:100EBC0000221A75124B4FF46022DA61104B00229B
:100ECC005A600F4B01221A610D4801F03BFD03469D
:100EDC00002B01D001F0E2F907237B600123BB60FA
:100EEC000023FB603B1D1946054801F0E9FE034653
:100EFC00002B01D001F0D2F900BF1037BD4680BDE8
:100F0C00BC0200200028014080B500AF124B134AF0
:100F1C001A60114B124A5A600F4B00229A600E4B0A
:100F2C000022DA600C4B4FF480421A610A4B00220B
:100F3C005A61094B00229A61074B0022DA61064B79
:100F4C0000221A62044802F0C9FC0346002B01D0AF
:100F5C0001F0A4F900BF80BDEC0200200054004059
:100F6C00A086010080B586B000AF07F1080300220F
:100F7C001A605A609A60DA603B4600221A605A6026
:100F8C001F4B204A1A601E4B4FF6FF125A601C4B27
:100F9C0000229A601A4B42F21072DA60184B00224F
:100FAC001A61174B00225A61154B80229A61144822
:100FBC0003F026FE0346002B01D001F06FF94FF42D
:100FCC008053BB6007F1080319460D4803F0F0FF8E
:100FDC000346002B01D001F061F900233B60002394
:100FEC007B603B461946064804F0C6F90346002BC5
:100FFC0001D001F053F900BF1837BD4680BD00BFCA
:10100C0040030020002C014080B586B000AF07F1F2
:10101C00080300221A605A609A60DA603B4600228C
:10102C001A605A601D4B4FF080421A601B4B3F22D6
:10103C005A601A4B00229A60184B4FF6FF72DA6016
:10104C00164B00221A61154B80229A61134803F04B
:10105C00D7FD0346002B01D001F020F94FF480534B
:10106C00BB6007F1080319460C4803F0A1FF0346C7
:10107C00002B01D001F012F900233B6000237B60B0
:10108C003B461946054804F077F90346002B01D07E
:10109C0001F004F900BF1837BD4680BD880300205D
:1010AC0080B586B000AF07F1080300221A605A60C1
:1010BC009A60DA603B4600221A605A601D4B1E4A49
:1010CC001A601C4B3F225A601A4B00229A60194B33
:1010DC004FF47A72DA60174B00221A61154B80229A
:1010EC009A61144803F08CFD0346002B01D001F0EB
:1010FC00D5F84FF48053BB6007F1080319460D482F
:10110C0003F056FF0346002B01D001F0C7F8002373
:10111C003B6000237B603B461946064804F02CF9E3
:10112C000346002B01D001F0B9F800BF1837BD46BB
:10113C0080BD00BFD00300200004004080B586B005
:10114C0000AF07F1080300221A605A609A60DA6057
:10115C003B4600221A605A601D4B1E4A1A601C4BFB
:10116C0040225A601A4B00229A60194B4FF47A6253
:10117C00DA60174B00221A61154B80229A611448D1
:10118C0003F03EFD0346002B01D001F087F84FF42D
:10119C008053BB6007F1080319460D4803F008FFA4
:1011AC000346002B01D001F079F800233B600023AB
:1011BC007B603B461946064804F0DEF80346002BDC
:1011CC0001D001F06BF800BF1837BD4680BD00BFE1
:1011DC00180400200008004080B500AF114B124AE3
:1011EC001A60104B4FF4E1325A600E4B00229A6099
:1011FC000C4B0022DA600B4B00221A61094B0C22BB
:10120C005A61084B00229A61064B0022DA610548AC
:10121C0004F022F90346002B01D001F03FF800BF87
:10122C0080BD00BF600400200038014080B588B04C
:10123C0000AF07F1100300221A605A609A60DA605E
:10124C007C4B9B697B4A43F010039361794B9B6900
:10125C0003F01003FB60FB68764B9B69754A43F007
:10126C0020039361734B9B6903F02003BB60BB6845
:10127C00704B9B696F4A43F0040393616D4B9B6900
:10128C0003F004037B607B686A4B9B69694A43F0FB
:10129C0008039361674B9B6903F008033B603B6851
:1012AC0000224FF40051644802F0E7FA002249F69C
:1012BC000101624802F0E1FA002243F639716048FC
:1012CC0002F0DBFA4FF400533B6101237B610023F6
:1012DC00BB610223FB6107F110031946564802F06B
:1012EC0075F840F601033B6101237B610123BB616F
:1012FC000223FB6107F110031946504802F066F80F
:10130C0002233B614F4B7B610123BB6107F110034F
:10131C0019464A4802F05AF83C233B614A4B7B6120
:10132C000123BB6107F110031946444802F04EF843
:10133C0043F239733B6101237B610023BB610223C0
:10134C00FB6107F1100319463D4802F03FF84FF4DA
:10135C0000633B6101237B610223BB610223FB61C0
:10136C0007F110031946364802F030F84FF44043A9
:10137C003B6100237B610123BB6107F1100319461C
:10138C002F4802F023F84FF480733B6100237B61FC
:10139C000123BB6107F110031946284802F016F827
:1013AC004FF480533B6101237B610223BB61022319
:1013BC00FB6107F110031946204802F007F84FF4BF
:1013CC0000433B6101237B610023BB610223FB6172
:1013DC0007F110031946194801F0F8FF0022022109
:1013EC00072001F0FCFE072001F015FF00220D2163
:1013FC00082001F0F4FE082001F00DFF00220D2161
:10140C00092001F0ECFE092001F005FF00220D215E
:10141C000A2001F0E4FE0A2001F0FDFE00220D215D
:10142C00172001F0DCFE172001F0F5FE00BF20377D
:10143C00BD4680BD00100240001001400008014074
:10144C00000C0140000031100000211080B58CB060
:10145C0006AF78607B681A68904B1B689A4240F024
:10146C0019818F4B1B68002B1AD08E4B5A788D4BE1
:10147C001A708D4B1A788B4B5A7001228A497868F6
:10148C0004F0BDF8884B1B784B2B09D18749854854
:10149C00FEF756FE0346002B02D1854B01221A6043
:1014AC00844B1B68002B2BD000237B610BE07B69EA
:1014BC000133814AD15C804A7B6913440A461A7015
:1014CC007B6901337B617B69032BF0DD764B1A78EA
:1014DC00794B1A7179497848FEF732FE0346002B96
:1014EC0009D17748FEF736FE03469AB20A237449AF
:1014FC00786804F001F801226B49786804F07FF8F1
:10150C00704B1B68002B2BD000233B610BE03B691D
:10151C0001336D4AD15C6C4A3B6913440A461A701C
:10152C003B6901333B613B69052BF0DD5E4B1A785F
:10153C00654B9A7165496448FEF702FE0346002B21
:10154C0009D15F48FEF706FE03469AB20A235C49AE
:10155C00786803F0D1FF01225349786804F04FF802
:10156C005B4B1B68002B00F095805A4B1B68002BC3
:10157C001FD10023FB600BE0FB680133564AD15CA2
:10158C00554AFB6813440A461A70FB680133FB602A
:10159C00FB680D2BF0DD444B1A784F4B9A734F4977
:1015AC004D48FEF7CDFD0346002B02D1494B0122DD
:1015BC001A60484B1B68002B64D0494B1B680022F7
:1015CC005A62474803F0BEFB464B1B68002B47D0C2
:1015DC00454B1B68344A1178444AD154424B1B6822
:1015EC000133414A1360304B1B780A2B38D13E4BE8
:1015FC0000221A603E4B01221A603A4B00221A60FC
:10160C003C4B01221A60334B00221A603A4B0122E8
:10161C001A603A4B04933A4B03933A4B02933A4B6E
:10162C0001933A4B00933A4B3A4A3B492F4804F00A
:10163C006DFF0023BB6007E02C4ABB6813440022FB
:10164C001A70BB680133BB60BB68272BF4D9334BD2
:10165C0001221A60324B01221A60214803F020FB50
:10166C00114B1A782F4B1A702F492E48FEF768FD34
:10167C000346002B06D11E4B1B68002B02D1194BC5
:10168C0001221A601A4B00221A600122064978685E
:10169C0003F0B5FF00BF1837BD4680BD60040020C5
:1016AC00D4040020AC040020A80400200C0000206E
:1016BC00E4040020D8040020B00400201000002016
:1016CC0000000020DC040020B804002018000020DA
:1016DC00E0040020E8040020C004002020000020CA
:1016EC0040030020F0040020F4040020000500203A
:1016FC00EC040020F804002038060020EC01002047
:10170C00E8010020E4010020F00100203005002059
:10171C002C050020280500209C78000800020020E1
:10172C0030060020D004002030000020B0B582B07C
:10173C0000AF78607B681B68184A934205D1184B40
:10174C0001221A60174B01221A607B681B68B3F1E7
:10175C00804F08D1144BD3E90023541C43F10005EE
:10176C00114BC3E900457B681B68104A934205D1B5
:10177C000F4B01221A600F4803F0E4FA7B681B68D8
:10178C000D4A934205D10D4803F0DCFA0C4B0122B3
:10179C001A6000BF0837BD46B0BD00BF002C014029
:1017AC0030060020FC040020F80500200004004056
:1017BC0000020020D0030020000800401804002084
:1017CC009006002080B586B000AF0346FB80FB88F6
:1017DC00042B40F0F98001F087F80346A04A13600F
:1017EC009F4B1A689F4B1B68D21A9F4B1B689A42DF
:1017FC0040F2EA8004219D4802F028F80346002BB1
:10180C0040F0DE8000224FF48071994802F035F8E8
:10181C0001224FF40071964802F02FF801224FF488
:10182C008061934802F029F801220121904802F0CE
:10183C0024F804218D4802F009F80346002B12D13C
:10184C008C4B1B7883F00103DBB2002B0BD08A4B43
:10185C001B680133884A1360884B01221A60884B3D
:10186C0001221A6095E001224FF48071804802F049
:10187C0004F800224FF400717D4801F0FEFF0122B4
:10188C004FF480617A4801F0F8FF01220121784879
:10189C0001F0F3FF0421754801F0D8FF0346002B3B
:1018AC0012D1744B1B7883F00103DBB2002B0BD0ED
:1018BC00744B1B680133734A1360704B02221A601D
:1018CC006F4B01221A6064E001224FF4807168486A
:1018DC0001F0D3FF01224FF40071654801F0CDFFF8
:1018EC0000224FF48061624801F0C7FF0122012100
:1018FC005F4801F0C2FF04215C4801F0A7FF0346DA
:10190C00002B12D15B4B1B7883F00103DBB2002B55
:10191C000BD05D4B1B6801335B4A1360574B0322A2
:10192C001A60574B01221A6033E001224FF4807188
:10193C004F4801F0A2FF01224FF400714C4801F016
:10194C009CFF01224FF48061494801F096FF002270
:10195C000121474801F091FF0421444801F076FF32
:10196C000346002B15D1434B1B7883F00103DBB2EC
:10197C00002B0ED0454B1B68002B0AD0444B1B6828
:10198C000133434A13603D4B0A221A603C4B01223F
:10199C001A6000224FF48071354801F06EFF00226E
:1019AC004FF40071324801F068FF00224FF480615F
:1019BC002F4801F062FF002201212D4801F05DFF4C
:1019CC00274B1B68274A1360FB88082B40F01581B6
:1019DC0000F08AFF0346224A1360214B1A68214B00
:1019EC001B68D21A204B1B689A4240F206810821D0
:1019FC001E4801F02BFF0346002B40F0FA8000221A
:101A0C004FF480711A4801F038FF01224FF4007135
:101A1C00174801F032FF01224FF48061144801F0A5
:101A2C002CFF01220121124801F027FF08210F4849
:101A3C0001F00CFF0346002B2ED10E4B1B7883F0CC
:101A4C000103DBB2002B27D0124B1B680133114A68
:101A5C0013600A4B04221A60094B01221A60B1E090
:101A6C003C05002038050020F8010020000801404A
:101A7C00000C014094060020400500203406002094
:101A8C000002002044050020480500208C060020A0
:101A9C00280500204C05002001224FF48071994844
:101AAC0001F0EBFE00224FF40071964801F0E5FEC8
:101ABC0001224FF48061934801F0DFFE01220121E5
:101ACC00904801F0DAFE08218F4801F0BFFE034672
:101ADC00002B12D18D4B1B7883F00103DBB2002B52
:101AEC000BD08B4B1B680133894A1360894B052241
:101AFC001A60894B01221A6064E001224FF4807154
:101B0C00804801F0BAFE01224FF400717D4801F0CB
:101B1C00B4FE00224FF480617A4801F0AEFE01223F
:101B2C000121784801F0A9FE0821774801F08EFECA
:101B3C000346002B12D1754B1B7883F00103DBB2EB
:101B4C00002B0BD0754B1B680133744A1360714B1F
:101B5C0006221A60704B01221A6033E001224FF406
:101B6C008071684801F089FE01224FF400716548CC
:101B7C0001F083FE01224FF48061624801F07DFE8A
:101B8C00002201215F4801F078FE08215E4801F037
:101B9C005DFE0346002B15D15C4B1B7883F00103D3
:101BAC00DBB2002B0ED05E4B1B68002B0AD05D4BBA
:101BBC001B6801335B4A1360564B0A221A60564B62
:101BCC0001221A6000224FF480714E4801F055FE3C
:101BDC0000224FF400714B4801F04FFE00224FF4ED
:101BEC008061484801F049FE00220121454801F07E
:101BFC0044FE4D4B1B684D4A1360FB88102B40F084
:101C0C001D8100F071FE0346474A1360464B1A686B
:101C1C00464B1B68D21A464B1B689A4240F20E8107
:101C2C001021394801F012FE0346002B40F00281CE
:101C3C00364B1B7883F00103DBB2002B00F0FA80EB
:101C4C0000224FF480712F4801F017FE01224FF44F
:101C5C0000712C4801F011FE01224FF480612948DB
:101C6C0001F00BFE01220121264801F006FE102195
:101C7C00254801F0EBFD0346002B12D1234B1B78BA
:101C8C0083F00103DBB2002B0BD02A4B1B68013312
:101C9C00284A13601F4B07221A601F4B01221A603F
:101CAC00B1E001224FF48071164801F0E6FD0022EC
:101CBC004FF40071134801F0E0FD01224FF48061F4
:101CCC00104801F0DAFD012201210E4801F0D5FD8A
:101CDC0010210D4801F0BAFD0346002B2ED10B4B01
:101CEC001B7883F00103DBB2002B27D0124B1B684F
:101CFC000133114A1360074B08221A60064B01226C
:101D0C001A6080E0000C014000080140940600209D
:101D1C00500500203406002000020020540500204D
:101D2C008C0600202C0500203C05002038050020E6
:101D3C00F8010020580500205C05002001224FF41A
:101D4C008071984801F099FD01224FF4007195487B
:101D5C0001F093FD00224FF48061924801F08DFD5B
:101D6C00012201218F4801F088FD10218E4801F0DD
:101D7C006DFD0346002B12D18C4B1B7883F00103B5
:101D8C00DBB2002B0BD08A4B1B680133884A1360E3
:101D9C00884B09221A60884B01221A6033E0012219
:101DAC004FF480717F4801F068FD01224FF40071FF
:101DBC007C4801F062FD01224FF48061794801F00A
:101DCC005CFD00220121774801F057FD1021764877
:101DDC0001F03CFD0346002B15D1744B1B7883F0AE
:101DEC000103DBB2002B0ED0744B1B68002B0AD006
:101DFC00734B1B680133724A13606E4B0A221A60D4
:101E0C006D4B01221A6000224FF48071654801F07D
:101E1C0034FD00224FF40071624801F02EFD0022C7
:101E2C004FF480615F4801F028FD002201215D48DC
:101E3C0001F023FD634B1B68634A1360FB88202B66
:101E4C0040F0188100F050FD03465E4A13605D4B74
:101E5C001A685D4B1B68D21A5C4B1B689A4240F2A5
:101E6C0009812021504801F0F1FC0346002B40F081
:101E7C00FD8000224FF480714A4801F0FEFC0122E3
:101E8C004FF40071474801F0F8FC01224FF48061D7
:101E9C00444801F0F2FC01220121424801F0EDFC22
:101EAC002021414801F0D2FC0346002B18D1434BB2
:101EBC001B68002B00F0C380454B1B680133444A60
:101ECC001360444B1B680133424A1360424B01229E
:101EDC001A60384B0A221A60374B01221A60AEE0A6
:101EEC0001224FF480712F4801F0C7FC00224FF4FF
:101EFC0000712C4801F0C1FC01224FF4806129488B
:101F0C0001F0BBFC01220121264801F0B6FC202186
:101F1C00254801F09BFC0346002B12D1234B1B7868
:101F2C0083F00103DBB2002B0BD02C4B1B6801336D
:101F3C002A4A13601F4B00221A601F4B01221A60A1
:101F4C007DE001224FF48071164801F096FC0122CD
:101F5C004FF40071134801F090FC00224FF48061A3
:101F6C00104801F08AFC012201210E4801F085FC89
:101F7C0020210D4801F06AFC0346002B32D10B4B9B
:101F8C001B7883F00103DBB2002B2BD0144B1B68A6
:101F9C000133134A1360074B0B221A60064B0122C4
:101FAC001A604CE0000C014000080140940600202F
:101FBC006005002034060020000200208C06002062
:101FCC00300500203C05002038050020F8010020D9
:101FDC0068050020FC01002004020020640500209C
:101FEC006C05002001224FF48071434801F045FC40
:101FFC0001224FF40071404801F03FFC01224FF4E4
:10200C0080613D4801F039FC002201213A4801F081
:10201C0034FC2021394801F019FC0346002B0ED169
:10202C00374B1B68002B0AD0364B1B680133354AE3
:10203C001360354B0A221A60344B01221A600022BD
:10204C004FF480712C4801F018FC00224FF4007101
:10205C00294801F012FC00224FF48061264801F05F
:10206C000CFC00220121244801F007FC284B1B68C2
:10207C00284A1360FB88022B3AD1274B1B685B6AFA
:10208C00264A1360254B1A68254B1B68D31A254A20
:10209C001360224B1B68224A1360224B1A68224B96
:1020AC001B68D1B2214AD1541F4B1B6801331E4A05
:1020BC0013601D4B1B68542B1ADD174802F042FEAF
:1020CC00072001F0B6F807F1080300221A605A60E5
:1020DC009A60DA6000233B610123FB600223BB6042
:1020EC0002237B6107F108031946044801F06EF9DD
:1020FC0000BF1837BD4680BD000C014000080140F0
:10210C008C060020F0010020340600200002002084
:10211C003C050020380500208803002084050020A1
:10212C008005002088050020F40500208C05002087
:10213C0080B584B000AF78603960284802F002FEA8
:10214C00072001F076F80023FB600423BB603DE020
:10215C00FB68002B00DA0733DB1019460A463B6894
:10216C0013441A783B680B445200D2B21A70BB6805
:10217C007A6813441A78BB68013379680B441B786E
:10218C009A420DD9FB68002B00DA0733DB10194695
:10219C000A463B681A443B680B4412781A700FE0ED
:1021AC00FB68002B00DA0733DB1019460A463B6844
:1021BC0013441A783B680B4442F00102D2B21A70F5
:1021CC00FB680133FB60BB680233BB60BB68522BFE
:1021DC00BEDD00BF00BF1037BD4680BD88030020A8
:1021EC0080B584B000AF284802F05AFD072001F0FA
:1021FC0020F8264B00221A603B4600221A605A60D7
:10220C009A60DA600123BB6000237B6002233B6091
:10221C000223FB603B4619461D4801F0D7F801200C
:10222C0000F06CFB0023BB6001237B6002233B604E
:10223C000223FB603B461946154801F0C7F8002203
:10224C000221134801F019FB142000F057FB0F4B2F
:10225C001B68002B06D10C4B1B6800225A620D4BDD
:10226C0000221A6002233B600B4B7B600123BB6096
:10227C003B461946064801F0A9F8072000F0CBFFB1
:10228C0000BF1037BD4680BD88030020F405002038
:10229C0000080140800500200000311080B400AF20
:1022AC0072B600BFFEE7000080B483B000AF0E4BE7
:1022BC009B690D4A43F0010393610B4B9B6903F03F
:1022CC0001037B607B68084BDB69074A43F0805352
:1022DC00D361054BDB6903F080533B603B6800BF67
:1022EC000C37BD4680BC70470010024080B58AB0E8
:1022FC0000AF786007F1180300221A605A609A60E8
:10230C00DA607B681B68284A934222D1274B9B6971
:10231C00264A43F400739361244B9B6903F40073C6
:10232C007B617B69214B9B69204A43F004039361D9
:10233C001E4B9B6903F004033B613B694023BB616B
:10234C000323FB6107F118031946194801F03EF805
:10235C0026E07B681B68174A934221D1134B9B697B
:10236C00124A43F480639361104B9B6903F48063BE
:10237C00FB60FB680D4B9B690C4A43F004039361B3
:10238C000A4B9B6903F00403BB60BB688023BB61F1
:10239C000323FB6107F118031946054801F016F8F1
:1023AC0000BF2837BD4680BD00240140001002400C
:1023BC00000801400028014080B588B000AF78606B
:1023CC0007F1100300221A605A609A60DA607B6889
:1023DC001B68154A934223D1144B9B69134A43F053
:1023EC0008039361114B9B6903F00803FB60FB68C6
:1023FC00C0233B6112237B610323FB6107F11003B4
:10240C0019460B4800F0E2FF084BDB69074A43F41E
:10241C000013D361054BDB6903F40013BB60BB688D
:10242C0000BF2037BD4680BD005400400010024064
:10243C00000C014080B582B000AF78607B681B68EF
:10244C000A4A93420DD10A4BDB69094A23F4001363
:10245C00D3614021074801F03DF98021054801F086
:10246C0039F900BF0837BD4680BD00BF005400409D
:10247C0000100240000C014080B586B000AF7860BF
:10248C007B681B68404A93422CD1404B9B693F4A66
:10249C0043F4006393613D4B9B6903F400637B61E0
:1024AC007B6900220A21182000F099FE182000F008
:1024BC00B2FE00220A21192000F091FE192000F032
:1024CC00AAFE00220A211A2000F089FE1A2000F030
:1024DC00A2FE00220A211B2000F081FE1B2000F02E
:1024EC009AFE4CE07B681B68B3F1804F14D1274BEC
:1024FC00DB69264A43F00103D361244BDB6903F00B
:10250C0001033B613B69002202211C2000F067FEA5
:10251C001C2000F080FE32E07B681B681C4A934252
:10252C0014D11A4BDB69194A43F00203D361174BE0
:10253C00DB6903F00203FB60FB68002207211D200E
:10254C0000F04DFE1D2000F066FE18E07B681B6855
:10255C00104A934213D10D4BDB690C4A43F0040330
:10256C00D3610A4BDB6903F00403BB60BB68002238
:10257C0000211E2000F033FE1E2000F04CFE00BF98
:10258C001837BD4680BD00BF002C01400010024032
:10259C00000400400008004080B588B000AF7860AF
:1025AC0007F1100300221A605A609A60DA607B68A7
:1025BC001B68204A934239D11F4B9B691E4A43F436
:1025CC00804393611C4B9B6903F48043FB60FB6865
:1025DC00194B9B69184A43F004039361164B9B6992
:1025EC0003F00403BB60BB684FF400733B61022330
:1025FC007B610323FB6107F1100319460F4800F0C0
:10260C00E5FE4FF480633B6100237B610023BB61DB
:10261C0007F110031946094800F0D8FE00220121E9
:10262C00252000F0DCFD252000F0F5FD00BF203753
:10263C00BD4680BD0038014000100240000801403A
:10264C0080B400AFFEE780B400AFFEE780B400AF0B
:10265C00FEE780B400AFFEE780B400AFFEE780B4C5
:10266C0000AF00BFBD4680BC704780B400AF00BF58
:10267C00BD4680BC704780B400AF00BFBD4680BC77
:10268C00704780B500AF00F01DF900BF80BD80B56C
:10269C0000AF022001F00AF900BF80BD80B500AF89
:1026AC00042001F003F900BF80BD80B500AF082005
:1026BC0001F0FCF800BF80BD80B500AF102001F028
:1026CC00F5F800BF80BD80B500AF202001F0EEF81A
:1026DC0000BF80BD80B500AF024802F061FB00BFB7
:1026EC0080BD00BF4003002080B500AF024802F05F
:1026FC0057FB00BF80BD00BF4003002080B500AF7A
:10270C00024802F04DFB00BF80BD00BF400300201B
:10271C0080B500AF024802F043FB00BF80BD00BF94
:10272C004003002080B500AF024802F039FB00BF27
:10273C0080BD00BF8803002080B500AF024802F0C6
:10274C002FFB00BF80BD00BFD003002080B500AFC1
:10275C00024802F025FB00BF80BD00BF180400201A
:10276C0080B500AF024802F06FFF00BF80BD00BF14
:10277C006004002080B586B000AF7860144A154B19
:10278C00D31A7B617B693B61134B1B68002B02D115
:10279C00114B124A1A60104B1A687B6813443A6941
:1027AC009A4207D203F0E6FE03460C221A604FF061
:1027BC00FF3309E0084B1B68FB60074B1A687B680A
:1027CC001344054A1360FB6818461837BD4680BD94
:1027DC000050002000040000A4060020F807002090
:1027EC0080B400AF00BFBD4680BC7047FFF7F8FF58
:1027FC000B480C490C4A002302E0D458C450043353
:10280C00C4188C42F9D3094A094C002301E0136027
:10281C000432A242FBD303F0B3FEFEF715F8704767
:10282C00000000206C020020447A00087002002096
:10283C00F4070020FEE7000080B500AF084B1B68D2
:10284C00074A43F010031360032000F0BDFC0F2077
:10285C0000F008F8FFF728FD0023184680BD00BFE4
:10286C000020024080B582B000AF7860124B1A682D
:10287C00124B1B7819464FF47A73B3FBF1F3B2FB8E
:10288C00F3F3184600F0E3FC0346002B01D00123C0
:10289C000EE07B680F2B0AD8002279684FF0FF30CE
:1028AC0000F09DFC064A7B681360002300E00123C6
:1028BC0018460837BD4680BD1002002018020020C3
:1028CC001402002080B400AF054B1B781A46054B50
:1028DC001B681344034A136000BFBD4680BC70479D
:1028EC0018020020A806002080B400AF024B1B6821
:1028FC001846BD4680BC7047A806002080B584B041
:10290C0000AF7860FFF7F0FFB8607B68FB60FB6896
:10291C00B3F1FF3F05D00A4B1B781A46FB681344F2
:10292C00FB6000BFFFF7E0FF0246BB68D31AFA68F2
:10293C009A42F7D800BF00BF1037BD4680BD00BF1C
:10294C001802002080B586B000AF78600023FB75BC
:10295C0000233B610023BB600023FB607B68002BE2
:10296C0001D10123BEE07B689B68002B7B689B6ACE
:10297C00002B09D17B680022DA627B68002283F885
:10298C0024207868FFF7B2FC786800F0EBFA034675
:10299C00FB757B689B6A03F01003002B40F0998059
:1029AC00FB7D002B40F095807B689B6A23F4885359
:1029BC0023F0020343F002027B689A627B685A6838
:1029CC007B68DB691A437B681B7B5B001343BA682B
:1029DC001343BB607B689B68B3F5807F03D07B6837
:1029EC009B68012B02D14FF4807300E000233A69FD
:1029FC0013433B617B681B7D012B19D17B681B7BCF
:102A0C00002B09D17B689B69013B5A033B6913433B
:102A1C0043F400633B610BE07B689B6A43F020024C
:102A2C007B689A627B68DB6A43F001027B68DA623E
:102A3C007B681B685B6823F469417B681B683A6997
:102A4C000A435A607B681B689A68284B13407A6863
:102A5C001268B9680B4393607B689B68B3F5807F01
:102A6C0003D07B689B68012B04D17B681B69013BFD
:102A7C001B05FB607B681B68DB6A23F470017B68B9
:102A8C001B68FA680A43DA627B681B689A68184B01
:102A9C001340BA689A420BD17B680022DA627B68D9
:102AAC009B6A23F0030343F001027B689A6218E0EF
:102ABC007B689B6A23F0120343F010027B689A62D6
:102ACC007B68DB6A43F001027B68DA620123FB75E9
:102ADC0007E07B689B6A43F010027B689A620123D3
:102AEC00FB75FB7D18461837BD4680BDFDF7E1FF31
:102AFC00FE0E1FFF80B584B000AF78600023FB731F
:102B0C007B6893F82430012B01D1022398E07B6879
:102B1C00012283F82420786800F0CAF90346FB737D
:102B2C00FB7B002B40F087807B689B6A23F440730F
:102B3C0023F0010343F480727B689A627B681B6804
:102B4C00414A934205D1414B5B6803F47023002B3F
:102B5C0015D17B689B6A23F480127B689A627B6830
:102B6C001B685B6803F48063002B26D07B689B6A30
:102B7C0023F4405343F480527B689A621DE07B68D7
:102B8C009B6A43F480127B689A627B681B682F4AAD
:102B9C00934204D07B681B682B4A93420DD12B4B7C
:102BAC005B6803F48063002B07D07B689B6A23F47B
:102BBC00405343F480527B689A627B689B6A03F4AF
:102BCC008053002B06D07B68DB6A23F006027B68FF
:102BDC00DA6202E07B680022DA627B68002283F80A
:102BEC0024207B681B686FF002021A607B681B68EC
:102BFC009B6803F46023B3F5602F13D17B681B68CB
:102C0C00114A934205D1114B5B6803F47023002BDE
:102C1C0008D17B681B689A687B681B6842F4A00229
:102C2C009A600CE07B681B689A687B681B6842F4AE
:102C3C0080129A6003E07B68002283F82420FB7BDF
:102C4C0018461037BD4680BD0028014000240140C5
:102C5C0080B584B000AF78600023FB737B6893F879
:102C6C002430012B01D102231AE07B68012283F866
:102C7C002420786800F076F90346FB73FB7B002B6D
:102C8C0009D17B689B6A23F4885323F0010343F03A
:102C9C0001027B689A627B68002283F82420FB7B0C
:102CAC0018461037BD4680BD80B483B000AF786045
:102CBC007B681B68DB6C18460C37BD4680BC7047C4
:102CCC0080B485B000AF786039600023FB730023BB
:102CDC00BB607B6893F82430012B01D10223DCE02C
:102CEC007B68012283F824203B685B68062B1CD888
:102CFC007B681B68596B3B685A6813469B001344EE
:102D0C00053B1F2202FA03F3DB4319403B681868AA
:102D1C003B685A6813469B001344053B00FA03F2C8
:102D2C007B681B680A435A633CE03B685B680C2B6E
:102D3C001CD87B681B68196B3B685A6813469B0050
:102D4C001344233B1F2202FA03F3DB4319403B6875
:102D5C0018683B685A6813469B001344233B00FADF
:102D6C0003F27B681B680A431A631BE07B681B68D1
:102D7C00D96A3B685A6813469B001344413B1F2297
:102D8C0002FA03F3DB4319403B6818683B685A6846
:102D9C0013469B001344413B00FA03F27B681B680B
:102DAC000A43DA623B681B68092B1CD97B681B68D9
:102DBC00D9683B681A6813465B0013441E3B072214
:102DCC0002FA03F3DB4319403B6898683B681A68C6
:102DDC0013465B0013441E3B00FA03F27B681B682E
:102DEC000A43DA6019E07B681B6819693B681A684A
:102DFC0013465B001344072202FA03F3DB4319402A
:102E0C003B6898683B681A6813465B00134400FAE9
:102E1C0003F27B681B680A431A613B681B68102B22
:102E2C0003D03B681B68112B32D17B681B681D4A91
:102E3C00934225D17B681B689B6803F40003002B2D
:102E4C0026D17B681B689A687B681B6842F4000279
:102E5C009A603B681B68102B1AD1134B1B68134AE2
:102E6C00A2FB03239A0C13469B0013445B00BB602C
:102E7C0002E0BB68013BBB60BB68002BF9D107E0EB
:102E8C007B689B6A43F020027B689A620123FB7388
:102E9C007B68002283F82420FB7B18461437BD4640
:102EAC0080BC7047002401401002002083DE1B43CD
:102EBC0080B584B000AF78600023FB600023BB605A
:102ECC007B681B689B6803F00103012B40D07B6877
:102EDC001B689A687B681B6842F001029A601F4B62
:102EEC001B681F4AA2FB03239B0CBB6002E0BB6860
:102EFC00013BBB60BB68002BF9D1FFF7F5FCF86018
:102F0C001FE0FFF7F1FC0246FB68D31A022B18D91D
:102F1C007B681B689B6803F00103012B11D07B6855
:102F2C009B6A43F010027B689A627B68DB6A43F011
:102F3C0001027B68DA627B68002283F8242001237B
:102F4C0007E07B681B689B6803F00103012BD8D159
:102F5C00002318461037BD4680BD00BF100200206C
:102F6C0083DE1B4380B584B000AF78600023FB6028
:102F7C007B681B689B6803F00103012B2ED17B68D7
:102F8C001B689A687B681B6822F001029A60FFF745
:102F9C00ABFCF8601BE0FFF7A7FC0246FB68D31AFA
:102FAC00022B14D97B681B689B6803F00103012B6F
:102FBC000DD17B689B6A43F010027B689A627B6838
:102FCC00DB6A43F001027B68DA62012307E07B686D
:102FDC001B689B6803F00103012BDCD0002318460F
:102FEC001037BD4680BD000080B485B000AF78605E
:102FFC007B6803F00703FB600C4BDB68BB60BA68B3
:10300C004FF6FF031340BB60FB681A02BB68134307
:10301C0043F0BF6343F40033BB60044ABB68D36026
:10302C0000BF1437BD4680BC704700BF00ED00E008
:10303C0080B400AF044BDB681B0A03F0070318468F
:10304C00BD4680BC704700BF00ED00E080B483B08B
:10305C0000AF0346FB7197F90730002B0BDBFB79B4
:10306C0003F01F02064997F907305B09012000FAAB
:10307C0002F241F8232000BF0C37BD4680BC7047DC
:10308C0000E100E080B483B000AF0346FB7197F918
:10309C000730002B12DBFB7903F01F020A4997F96A
:1030AC0007305B09012000FA02F2203341F823209B
:1030BC00BFF34F8F00BFBFF36F8F00BF00BF0C3744
:1030CC00BD4680BC704700BF00E100E080B483B017
:1030DC0000AF03463960FB7197F90730002B0ADB10
:1030EC003B68DAB20C4997F907301201D2B20B44A3
:1030FC0083F800230AE03B68DAB20849FB7903F055
:10310C000F03043B1201D2B20B441A7600BF0C37EA
:10311C00BD4680BC704700BF00E100E000ED00E060
:10312C0080B489B000AFF860B9607A60FB6803F0D6
:10313C000703FB61FB69C3F10703042B28BF0423BE
:10314C00BB61FB690433062B02D9FB69033B00E02E
:10315C0000237B614FF0FF32BB6902FA03F3DA43C1
:10316C00BB681A407B699A404FF0FF317B6901FACA
:10317C0003F3D9437B680B40134318462437BD46F1
:10318C0080BC704780B582B000AF78607B68013B33
:10319C00B3F1807F01D301230FE00A4A7B68013B26
:1031AC0053600F214FF0FF30FFF790FF054B0022CB
:1031BC009A60044B07221A60002318460837BD4654
:1031CC0080BD00BF10E000E080B582B000AF786039
:1031DC007868FFF709FF00BF0837BD4680BD80B592
:1031EC0086B000AF0346B9607A60FB7300237B6145
:1031FC00FFF71EFF78617A68B9687869FFF790FF6E
:10320C00024697F90F3011461846FFF75FFF00BFD3
:10321C001837BD4680BD80B582B000AF0346FB7148
:10322C0097F907301846FFF711FF00BF0837BD4666
:10323C0080BD80B582B000AF0346FB7197F90730B3
:10324C001846FFF71FFF00BF0837BD4680BD80B58D
:10325C0082B000AF78607868FFF794FF0346184699
:10326C000837BD4680BD80B485B000AF78600023C0
:10327C00FB737B6893F82130DBB2022B08D07B68A0
:10328C0004229A637B68002283F82020012320E02B
:10329C007B681B681A687B681B6822F00E021A6038
:1032AC007B681B681A687B681B6822F001021A6035
:1032BC007B681A6C7B68DB6B012101FA02F25A60A5
:1032CC007B68012283F821207B68002283F8202070
:1032DC00FB7B18461437BD4680BC704780B584B064
:1032EC0000AF78600023FB737B6893F82130DBB26E
:1032FC00022B05D07B6804229A630123FB7351E0F7
:10330C007B681B681A687B681B6822F00E021A60C7
:10331C007B681B681A687B681B6822F001021A60C4
:10332C007B681B68224A934229D07B681B68214A20
:10333C00934222D07B681B681F4A93421AD07B6849
:10334C001B681E4A934212D07B681B681C4A93422E
:10335C000AD07B681B681B4A934202D14FF480133E
:10336C000EE04FF080730BE04FF4803308E04FF425
:10337C00805305E04FF4807302E0102300E001233A
:10338C00114A53607B68012283F821207B6800225C
:10339C0083F820207B685B6B002B03D07B685B6B16
:1033AC0078689847FB7B18461037BD4680BD00BF38
:1033BC00080002401C000240300002404400024061
:1033CC00580002406C0002400000024080B48BB0F8
:1033DC0000AF7860396000237B6200233B6269E1B7
:1033EC0001227B6A02FA03F3FB613B681B68FA69F2
:1033FC001340BB61BA69FB699A4240F058813B6843
:10340C005B689A4A93425ED0984A934275D8984A20
:10341C00934258D0964A93426FD8964A934252D0D0
:10342C00944A934269D8944A93424CD0924A93421C
:10343C0063D8924A934246D0904A93425DD8122B5D
:10344C002AD8122B59D801A252F823F0D3340008F1
:10345C00AD340008BF3400080135000807350008FA
:10346C000735000807350008073500080735000840
:10347C000735000807350008073500080735000830
:10348C000735000807350008073500080735000820
:10349C00B5340008C9340008794A934213D02CE0A3
:1034AC003B68DB683B6229E03B68DB6804333B62CA
:1034BC0024E03B68DB6808333B621FE03B68DB6859
:1034CC000C333B621AE03B689B68002B02D104234F
:1034DC003B6213E03B689B68012B05D108233B62E0
:1034EC007B68FA691A6109E008233B627B68FA6918
:1034FC005A6103E000233B6200E000BFBB69FF2B75
:10350C0001D87B6801E07B6804337B61BB69FF2BCE
:10351C0002D87B6A9B0002E07B6A083B9B003B6104
:10352C007B691A680F213B6901FA03F3DB431A40EC
:10353C00396A3B6901FA03F31A437B691A603B68E9
:10354C005B6803F08053002B00F0B1804D4B9B69FE
:10355C004C4A43F0010393614A4B9B6903F001030E
:10356C00BB60BB68484A7B6A9B08023352F8233025
:10357C00FB607B6A03F003039B000F2202FA03F348
:10358C00DB43FA681340FB607B68404A934213D0DC
:10359C007B683F4A93420DD07B683E4A934207D0EA
:1035AC007B683D4A934201D1032306E0042304E0E7
:1035BC00022302E0012300E000237A6A02F00302F6
:1035CC0092009340FA681343FB602F497B6A9B0877
:1035DC000233FA6841F823203B685B6803F48013DC
:1035EC00002B06D02D4B9A682C49BB6913438B607A
:1035FC0006E02A4B9A68BB69DB43284913408B6071
:10360C003B685B6803F40013002B06D0234BDA688D
:10361C002249BB691343CB6006E0204BDA68BB69D7
:10362C00DB431E491340CB603B685B6803F40033FB
:10363C00002B06D0194B5A681849BB6913434B60D1
:10364C0006E0164B5A68BB69DB43144913404B60C8
:10365C003B685B6803F48033002B21D00F4B1A6856
:10366C000E49BB6913430B6021E000BF0000321010
:10367C000000311000002210000021100000121078
:10368C000000111000100240000001400008014031
:10369C00000C0140001001400014014000040140E6
:1036AC000B4B1A68BB69DB43094913400B607B6AFF
:1036BC0001337B623B681A687B6A22FA03F3002BA6
:1036CC007FF48EAE00BF00BF2C37BD4680BC704768
:1036DC000004014080B489B000AF786039600023E9
:1036EC00FB619AE00122FB6902FA03F33A6813408A
:1036FC00BB61BB69002B00F08D804E4AFB699B08B7
:10370C00023352F823307B61FB6903F003039B0007
:10371C000F2202FA03F37A6913407B617B68464AF5
:10372C00934213D07B68454A93420DD07B68444A40
:10373C00934207D07B68434A934201D1032306E0AE
:10374C00042304E0022302E0012300E00023FA69D1
:10375C0002F00302920093407A699A4232D13A4BBA
:10376C001A68BB69DB43384913400B60364B5A6807
:10377C00BB69DB43344913404B60334BDA68BB699C
:10378C00DB4331491340CB602F4B9A68BB69DB4359
:10379C002D4913408B60FB6903F003039B000F2240
:1037AC0002FA03F37B61234AFB699B08023352F84C
:1037BC0023107B69DA431F48FB699B080A400233DC
:1037CC0040F82320BB69FF2B01D87B6801E07B68A4
:1037DC0004333B61BB69FF2B02D8FB699B0002E001
:1037EC00FB69083B9B00FB603B691A680F21FB6877
:1037FC0001FA03F3DB431A400421FB6801FA03F3DB
:10380C001A433B691A607B68DA68BB69DB431A4070
:10381C007B68DA60FB690133FB613A68FB6922FA69
:10382C0003F3002B7FF45EAF00BF00BF2437BD460F
:10383C0080BC70470000014000080140000C0140B2
:10384C0000100140001401400004014080B485B018
:10385C0000AF78600B467B807B689A687B8813404E
:10386C00002B02D00123FB7301E00023FB73FB7BD5
:10387C0018461437BD4680BC704780B483B000AF87
:10388C0078600B467B8013467B707B78002B03D0D3
:10389C007A887B681A6103E07B881A047B681A615A
:1038AC0000BF0C37BD4680BC7047000080B582B0AD
:1038BC0000AF0346FB80084B5A69FB881340002B72
:1038CC0006D0054AFB885361FB881846FDF77AFF42
:1038DC0000BF0837BD4680BD0004014080B584B0F0
:1038EC0000AF78607B68002B01D101232BE17B6852
:1038FC0093F83D30DBB2002B06D17B68002283F8B5
:10390C003C207868FEF758FD7B68242283F83D2024
:10391C007B681B681A687B681B6822F001021A60BE
:10392C007B681B681A687B681B6842F400421A604B
:10393C007B681B681A687B681B6822F400421A605B
:10394C0001F062F8F8607B685B68814A934207D8A3
:10395C00FB68804A934294BF01230023DBB206E04C
:10396C00FB687D4A934294BF01230023DBB2002BFA
:10397C0001D00123E7E0FB68784AA2FB03239B0CF0
:10398C00BB607B681B685B6823F03F017B681B682E
:10399C00BA680A435A607B681B681B6A23F03F01B4
:1039AC007B685B686A4A934202D8BB68013309E0C2
:1039BC00BB684FF4967202FB03F3694AA2FB032324
:1039CC009B0901337A6812680B4313627B681B688E
:1039DC00DB6923F44F4222F0FF027B685B685C4991
:1039EC008B4219D8FB68591E7B685B685B00B1FB86
:1039FC00F3F3591C40F6FC730B40002B0AD0FB6808
:103A0C00591E7B685B685B00B1FBF3F30133C3F3B6
:103A1C000B0351E004234FE07B689B68002B11D112
:103A2C00FB68581E7B6859680B465B000B44B0FB67
:103A3C00F3F30133C3F30B03002B0CBF012300235F
:103A4C00DBB212E0FB68581E7B6859680B469B0082
:103A5C000B4499000B44B0FBF3F30133C3F30B039A
:103A6C00002B0CBF01230023DBB2002B01D0012360
:103A7C0022E07B689B68002B0ED1FB68581E7B688C
:103A8C0059680B465B000B44B0FBF3F30133C3F3F3
:103A9C000B0343F400430FE0FB68581E7B68596826
:103AAC000B469B000B4499000B44B0FBF3F3013322
:103ABC00C3F30B0343F44043796809681343CB61A8
:103ACC007B681B681B6823F0C0017B68DA697B6824
:103ADC001B6A1A437B681B680A431A607B681B6865
:103AEC009B6823F4034323F0FF037A6811697A6817
:103AFC00D26811437A6812680B4393607B681B6829
:103B0C00DB6823F0FF017B685A697B689B691A4369
:103B1C007B681B680A43DA607B681B681A687B68E1
:103B2C001B6842F001021A607B6800221A647B68F1
:103B3C00202283F83D207B6800221A637B680022D8
:103B4C0083F83E20002318461037BD4680BD00BFC9
:103B5C00A08601007F841E00FF083D0083DE1B430E
:103B6C00D34D621080B582B000AF78607B68002BBB
:103B7C0001D1012321E07B68242283F83D207B685E
:103B8C001B681A687B681B6822F001021A6078684F
:103B9C00FEF750FC7B6800221A647B68002283F8D5
:103BAC003D207B6800221A637B68002283F83E204C
:103BBC007B68002283F83C20002318460837BD465A
:103BCC0080BD000080B588B002AFF8607A601A46FC
:103BDC000B467B8113463B81FEF786FE7861FB68C2
:103BEC0093F83D30DBB2202B40F0E0807B690093F2
:103BFC00192301227049F86800F064F90346002B80
:103C0C0001D00223D3E0FB6893F83C30012B01D1A7
:103C1C000223CCE0FB68012283F83C20FB681B6884
:103C2C001B6803F00103012B07D0FB681B681A68A3
:103C3C00FB681B6842F001021A60FB681B681A687B
:103C4C00FB681B6822F400621A60FB68212283F86F
:103C5C003D20FB68102283F83E20FB6800221A648A
:103C6C00FB687A685A62FB683A895A85FB685B8DF7
:103C7C009AB2FB681A85FB68504ADA6279897B69CB
:103C8C003A6AF86800F09CF80346002B01D0012337
:103C9C008DE000233B61FB681B685B693B61FB6843
:103CAC001B689B693B613B6966E07A69396AF86815
:103CBC0000F022FA0346002B0DD0FB681B6C042B82
:103CCC0007D1FB681B681A68FB681B6842F400721A
:103CDC001A6001236BE0FB685B6A1A78FB681B684F
:103CEC001A61FB685B6A5A1CFB685A62FB685B8D45
:103CFC009BB2013B9AB2FB685A85FB681B8D013B5A
:103D0C009AB2FB681A85FB681B685B6903F00403B5
:103D1C00042B1BD1FB681B8D002B17D0FB685B6A37
:103D2C001A78FB681B681A61FB685B6A5A1CFB6893
:103D3C005A62FB685B8D9BB2013B9AB2FB685A8559
:103D4C00FB681B8D013B9AB2FB681A857A69396A4C
:103D5C00F86800F019FA0346002B0DD0FB681B6CB9
:103D6C00042B07D1FB681B681A68FB681B6842F4BC
:103D7C0000721A6001231AE0FB681B8D002B94D192
:103D8C00FB681B681A68FB681B6842F400721A60B7
:103D9C00FB68202283F83D20FB68002283F83E203C
:103DAC00FB68002283F83C20002300E00223184625
:103DBC001837BD4680BD00BF020010000000FFFF99
:103DCC0080B588B002AFF8607A603B600B467B81AF
:103DDC00FB68DB6A7B617B69082B06D07B69012B56
:103DEC0003D07B6913F5803F08D1FB681B681A6808
:103DFC00FB681B6842F480721A600BE0FB681B6B5B
:103E0C00122B07D1FB681B681A68FB681B6842F40D
:103E1C0080721A603B6800937B6800224FF001119E
:103E2C00F86800F04FF80346002B0DD0FB681B68B8
:103E3C001B6803F48073B3F5807F03D1FB684FF4E8
:103E4C0000721A64032335E0FB681B69B3F5804FDD
:103E5C0008D17B89DBB21A46FB681B6802F0FE02B4
:103E6C001A611BE07B89DB11DBB203F00603DBB2CA
:103E7C0063F00F03DAB2FB681B681A613B687A685F
:103E8C000E49F86800F098F80346002B01D0012386
:103E9C0010E07B89DAB2FB681B681A613B687A68B0
:103EAC000749F86800F088F80346002B01D001237D
:103EBC0000E0002318461837BD4680BD08000100FD
:103ECC000200010080B584B000AFF860B9603B60BF
:103EDC001346FB7148E03B68B3F1FF3F44D0FEF75B
:103EEC0003FD0246BB69D31A3A689A4202D33B6877
:103EFC00002B39D1BB681B0CDBB2012B0DD1FB683D
:103F0C001B685B69DA43BB6813409BB2002B0CBF88
:103F1C0001230023DBB21A460CE0FB681B689B698B
:103F2C00DA43BB6813409BB2002B0CBF0123002368
:103F3C00DBB21A46FB799A4216D1FB6800221A634F
:103F4C00FB68202283F83D20FB68002283F83E208A
:103F5C00FB681B6C43F02002FB681A64FB680022B0
:103F6C0083F83C20012323E0BB681B0CDBB2012B44
:103F7C000DD1FB681B685B69DA43BB6813409BB2CD
:103F8C00002B0CBF01230023DBB21A460CE0FB68AC
:103F9C001B689B69DA43BB6813409BB2002B0CBFB8
:103FAC0001230023DBB21A46FB799A4293D00023FB
:103FBC0018461037BD4680BD80B584B000AFF860A0
:103FCC00B9607A603B6071E0FB681B685B6903F465
:103FDC008063B3F5806F23D1FB681B681A68FB689C
:103FEC001B6842F400721A60FB681B686FF48062F5
:103FFC005A61FB6800221A63FB68202283F83D207B
:10400C00FB68002283F83E20FB681B6C43F0040223
:10401C00FB681A64FB68002283F83C20012367E0EC
:10402C007B68B3F1FF3F41D0FEF75EFC02463B6874
:10403C00D31A7A689A4202D37B68002B36D1BB68BC
:10404C001B0CDBB2012B0CD1FB681B685B69DA43E0
:10405C00BB6813409BB2002B14BF01230023DBB2BF
:10406C000BE0FB681B689B69DA43BB6813409BB28F
:10407C00002B14BF01230023DBB2002B16D0FB68EE
:10408C0000221A63FB68202283F83D20FB68002283
:10409C0083F83E20FB681B6C43F02002FB681A641B
:1040AC00FB68002283F83C20012321E0BB681B0C39
:1040BC00DBB2012B0CD1FB681B685B69DA43BB6874
:1040CC0013409BB2002B14BF01230023DBB20BE087
:1040DC00FB681B689B69DA43BB6813409BB2002BDF
:1040EC0014BF01230023DBB2002B7FF46DAF002340
:1040FC0018461037BD4680BD80B584B000AFF8605F
:10410C00B9607A6034E0F86800F086F80346002B5A
:10411C0001D0012334E0BB68B3F1FF3F28D0FEF798
:10412C00E3FB02467B68D31ABA689A4202D3BB6897
:10413C00002B1DD1FB681B685B6903F08003802B8F
:10414C0016D0FB6800221A63FB68202283F83D20FE
:10415C00FB68002283F83E20FB681B6C43F02002B6
:10416C00FB681A64FB68002283F83C20012307E0FB
:10417C00FB681B685B6903F08003802BC3D10023B1
:10418C0018461037BD4680BD80B584B000AFF860CE
:10419C00B9607A6034E0F86800F03EF80346002B12
:1041AC0001D0012334E0BB68B3F1FF3F28D0FEF708
:1041BC009BFB02467B68D31ABA689A4202D3BB684F
:1041CC00002B1DD1FB681B685B6903F00403042BF7
:1041DC0016D0FB6800221A63FB68202283F83D206E
:1041EC00FB68002283F83E20FB681B6C43F0200226
:1041FC00FB681A64FB68002283F83C20012307E06B
:10420C00FB681B685B6903F00403042BC3D1002318
:10421C0018461037BD4680BD80B483B000AF7860BF
:10422C007B681B685B6903F48063B3F5806F1BD1FB
:10423C007B681B686FF480625A617B6800221A638A
:10424C007B68202283F83D207B68002283F83E2087
:10425C007B681B6C43F004027B681A647B68002249
:10426C0083F83C20012300E0002318460C37BD46A0
:10427C0080BC704780B586B000AF78607B68002B3F
:10428C0001D1012372E27B681B6803F00103002B50
:10429C0000F08780924B5B6803F00C03042B0CD06E
:1042AC008F4B5B6803F00C03082B12D18C4B5B68B3
:1042BC0003F48033B3F5803F0BD1894B1B6803F4B7
:1042CC000033002B6CD07B685B68002B68D101231A
:1042DC004CE27B685B68B3F5803F06D1804B1B6872
:1042EC007F4A43F4803313602EE07B685B68002BBD
:1042FC000CD17B4B1B687A4A23F480331360784BC8
:10430C001B68774A23F4802313601DE07B685B688D
:10431C00B3F5A02F0CD1724B1B68714A43F4802368
:10432C0013606F4B1B686E4A43F4803313600BE0D1
:10433C006B4B1B686A4A23F480331360684B1B6811
:10434C00674A23F4802313607B685B68002B13D0CF
:10435C00FEF7CAFA386108E0FEF7C6FA02463B6976
:10436C00D31A642B01D9032300E25D4B1B6803F4C1
:10437C000033002BF0D014E0FEF7B6FA386108E0F9
:10438C00FEF7B2FA02463B69D31A642B01D9032318
:10439C00ECE1534B1B6803F40033002BF0D100E02D
:1043AC0000BF7B681B6803F00203002B63D04C4BEF
:1043BC005B6803F00C03002B0BD0494B5B6803F0DC
:1043CC000C03082B1CD1464B5B6803F48033002B89
:1043DC0016D1434B1B6803F00203002B05D07B68FE
:1043EC001B69012B01D00123C0E13D4B1B6823F05D
:1043FC00F8027B685B69DB00394913430B603AE0D8
:10440C007B681B69002B20D0364B01221A60FEF70B
:10441C006BFA386108E0FEF767FA02463B69D31A7B
:10442C00022B01D90323A1E12D4B1B6803F00203DE
:10443C00002BF0D02A4B1B6823F0F8027B685B69D9
:10444C00DB00274913430B6015E0264B00221A6052
:10445C00FEF74AFA386108E0FEF746FA02463B6975
:10446C00D31A022B01D9032380E11D4B1B6803F0E7
:10447C000203002BF0D17B681B6803F00803002BB0
:10448C003AD07B689B69002B19D0174B01221A601C
:10449C00FEF72AFA386108E0FEF726FA02463B6975
:1044AC00D31A022B01D9032360E10D4B5B6A03F095
:1044BC000203002BF0D0012000F0CEFA1CE00A4BD6
:1044CC0000221A60FEF710FA38610FE0FEF70CFAC2
:1044DC0002463B69D31A022B08D9032346E100BFDD
:1044EC00001002400000424280044242924B5B6A40
:1044FC0003F00203002BE9D17B681B6803F0040373
:10450C00002B00F0A6800023FB758B4BDB6903F0BE
:10451C008053002B0DD1884BDB69874A43F08053C5
:10452C00D361854BDB6903F08053BB60BB6801230F
:10453C00FB75824B1B6803F48073002B18D17F4BE7
:10454C001B687E4A43F480731360FEF7CDF9386123
:10455C0008E0FEF7C9F902463B69D31A642B01D96E
:10456C00032303E1754B1B6803F48073002BF0D01D
:10457C007B68DB68012B06D16F4B1B6A6E4A43F0DC
:10458C00010313622DE07B68DB68002B0CD16A4BB6
:10459C001B6A694A23F001031362674B1B6A664A64
:1045AC0023F0040313621CE07B68DB68052B0CD141
:1045BC00614B1B6A604A43F0040313625E4B1B6A37
:1045CC005D4A43F0010313620BE05B4B1B6A5A4AD2
:1045DC0023F001031362584B1B6A574A23F0040360
:1045EC0013627B68DB68002B15D0FEF77DF9386110
:1045FC000AE0FEF779F902463B69D31A41F2883298
:10460C00934201D90323B1E04B4B1B6A03F0020325
:10461C00002BEED014E0FEF767F938610AE0FEF7E4
:10462C0063F902463B69D31A41F28832934201D9AD
:10463C0003239BE0404B1B6A03F00203002BEED1DB
:10464C00FB7D012B05D13C4BDB693B4A23F08053AE
:10465C00D3617B68DB69002B00F08780364B5B688D
:10466C0003F00C03082B61D07B68DB69022B46D16D
:10467C00334B00221A60FEF737F9386108E0FEF779
:10468C0033F902463B69D31A022B01D903236DE09F
:10469C00294B1B6803F00073002BF0D17B681B6A5D
:1046AC00B3F5803F08D1244B5B6823F400327B6860
:1046BC009B68214913434B601F4B5B6823F47412B6
:1046CC007B68196A7B685B6A0B431B4913434B601D
:1046DC001B4B01221A60FEF707F9386108E0FEF760
:1046EC0003F902463B69D31A022B01D903233DE09F
:1046FC00114B1B6803F00073002BF0D035E0104B0E
:10470C0000221A60FEF7F0F8386108E0FEF7ECF8CA
:10471C0002463B69D31A022B01D9032326E0064B30
:10472C001B6803F00073002BF0D11EE07B68DB6983
:10473C00012B07D1012319E000100240007000404A
:10474C00600042420B4B5B68FB60FB6803F48032F9
:10475C007B681B6A9A4206D1FB6803F470127B6873
:10476C005B6A9A4201D0012300E0002318461837F7
:10477C00BD4680BD0010024080B584B000AF7860AB
:10478C0039607B68002B01D10123D0E06A4B1B6898
:10479C0003F007033A689A4210D9674B1B6823F061
:1047AC00070265493B6813430B60634B1B6803F0BE
:1047BC0007033A689A4201D00123B8E07B681B6872
:1047CC0003F00203002B20D07B681B6803F004036A
:1047DC00002B05D0594B5B68584A43F4E063536097
:1047EC007B681B6803F00803002B05D0534B5B68F8
:1047FC00524A43F460535360504B5B6823F0F00211
:10480C007B689B684D4913434B607B681B6803F0C6
:10481C000103002B40D07B685B68012B07D1474B11
:10482C001B6803F40033002B15D101237FE07B6858
:10483C005B68022B07D1414B1B6803F00073002B04
:10484C0009D1012373E03D4B1B6803F00203002BDD
:10485C0001D101236BE0394B5B6823F003027B68C9
:10486C005B68364913434B60FEF73EF8F8600AE08C
:10487C00FEF73AF80246FB68D31A41F288329342AB
:10488C0001D9032353E02D4B5B6803F00C027B68CA
:10489C005B689B009A42EBD1274B1B6803F0070324
:1048AC003A689A4210D2244B1B6823F00702224923
:1048BC003B6813430B60204B1B6803F007033A68FB
:1048CC009A4201D0012332E07B681B6803F0040399
:1048DC00002B08D0194B5B6823F4E0627B68DB6823
:1048EC00164913434B607B681B6803F00803002BCD
:1048FC0009D0124B5B6823F460527B681B69DB00A8
:10490C000E4913434B6000F021F802460B4B5B68D9
:10491C001B0903F00F030A49CB5C22FA03F3094A83
:10492C001360094B1B681846FDF79CFF00231846C3
:10493C001037BD4680BD00BF002002400010024071
:10494C00C0780008100200201402002080B487B048
:10495C0000AF0023FB600023BB6000237B610023BE
:10496C007B6000233B611E4B5B68FB60FB6803F0C4
:10497C000C03042B02D0082B03D027E0194B3B610E
:10498C0027E0FB689B0C03F00F03174AD35C7B609A
:10499C00FB6803F48033002B10D0114B5B685B0C6D
:1049AC0003F00103114AD35CBB607B680D4A03FB27
:1049BC0002F2BB68B2FBF3F37B6104E07B680C4A48
:1049CC0002FB03F37B617B693B6102E0054B3B61BE
:1049DC0000BF3B6918461C37BD4680BC704700BF02
:1049EC000010024000127A00D8780008E87800081D
:1049FC0000093D0080B400AF024B1B681846BD4651
:104A0C0080BC70471002002080B500AFFFF7F2FFAA
:104A1C000246054B5B681B0A03F007030349CB5C9A
:104A2C0022FA03F3184680BD00100240D07800082B
:104A3C0080B500AFFFF7DEFF0246054B5B68DB0A73
:104A4C0003F007030349CB5C22FA03F3184680BD3D
:104A5C0000100240D078000880B485B000AF7860B8
:104A6C000A4B1B680A4AA2FB03235B0A7A6802FB07
:104A7C0003F3FB6000BFFB685A1EFA60002BF9D1F0
:104A8C0000BF00BF1437BD4680BC70471002002029
:104A9C00D34D621080B586B000AF786000233B61C7
:104AAC000023FB607B681B6803F00103002B7DD0A7
:104ABC000023FB754F4BDB6903F08053002B0DD1AA
:104ACC004C4BDB694B4A43F08053D361494BDB6958
:104ADC0003F08053BB60BB680123FB75464B1B681E
:104AEC0003F48073002B18D1434B1B68424A43F4E8
:104AFC0080731360FDF7F8FE386108E0FDF7F4FEF3
:104B0C0002463B69D31A642B01D903236DE03A4B5F
:104B1C001B6803F48073002BF0D0364B1B6A03F434
:104B2C004073FB60FB68002B2ED07B685B6803F442
:104B3C004073FA689A4227D02E4B1B6A23F44073B9
:104B4C00FB602E4B01221A602C4B00221A60294A62
:104B5C00FB681362FB6803F00103002B14D0FDF714
:104B6C00C3FE38610AE0FDF7BFFE02463B69D31A6B
:104B7C0041F28832934201D9032336E01D4B1B6A64
:104B8C0003F00203002BEED01A4B1B6A23F4407285
:104B9C007B685B68174913430B62FB7D012B05D1C6
:104BAC00144BDB69134A23F08053D3617B681B6879
:104BBC0003F00203002B08D00E4B5B6823F4404239
:104BCC007B689B680B4913434B607B681B6803F045
:104BDC001003002B08D0074B5B6823F480027B6822
:104BEC00DB68044913434B60002318461837BD4655
:104BFC0080BD00BF001002400070004040044242E3
:104C0C0080B582B000AF78607B68002B01D10123A6
:104C1C0041E07B6893F83D30DBB2002B06D17B681A
:104C2C00002283F83C207868FDF726FC7B68022282
:104C3C0083F83D207B681A687B680433194610465C
:104C4C0000F0A2FA7B68012283F846207B680122DF
:104C5C0083F83E207B68012283F83F207B68012289
:104C6C0083F840207B68012283F841207B68012275
:104C7C0083F842207B68012283F843207B68012261
:104C8C0083F844207B68012283F845207B6801224D
:104C9C0083F83D20002318460837BD4680BD000030
:104CAC0080B485B000AF78607B6893F83D30DBB2A0
:104CBC00012B01D001233AE07B68022283F83D20CE
:104CCC007B681B68DA687B681B6842F00102DA605B
:104CDC007B681B68184A93420ED07B681B68B3F143
:104CEC00804F09D07B681B68144A934204D07B68C0
:104CFC001B68134A934211D17B681B689B6803F0B5
:104D0C000703FB60FB68062B10D07B681B681A68D6
:104D1C007B681B6842F001021A6007E07B681B6825
:104D2C001A687B681B6842F001021A60002318465F
:104D3C001437BD4680BC7047002C01400004004075
:104D4C000008004080B483B000AF78607B681B68BB
:104D5C00DA687B681B6822F00102DA607B681B68EA
:104D6C001A6A41F211131340002B0FD17B681B6898
:104D7C001A6A40F244431340002B07D17B681B682E
:104D8C001A687B681B6822F001021A607B6801229A
:104D9C0083F83D20002318460C37BD4680BC704775
:104DAC0080B582B000AF78607B681B681B6903F02C
:104DBC000203022B22D17B681B68DB6803F0020321
:104DCC00022B1BD17B681B686FF002021A617B6897
:104DDC0001221A777B681B689B6903F00303002B85
:104DEC0003D0786800F0B4F905E0786800F0A7F912
:104DFC00786800F0B6F97B6800221A777B681B682C
:104E0C001B6903F00403042B22D17B681B68DB684D
:104E1C0003F00403042B1BD17B681B686FF00402A6
:104E2C001A617B6802221A777B681B689B6903F402
:104E3C004073002B03D0786800F08AF905E078689D
:104E4C0000F07DF9786800F08CF97B6800221A7705
:104E5C007B681B681B6903F00803082B22D17B6855
:104E6C001B68DB6803F00803082B1BD17B681B68ED
:104E7C006FF008021A617B6804221A777B681B6842
:104E8C00DB6903F00303002B03D0786800F060F9B2
:104E9C0005E0786800F053F9786800F062F97B68F7
:104EAC0000221A777B681B681B6903F01003102B18
:104EBC0022D17B681B68DB6803F01003102B1BD11D
:104ECC007B681B686FF010021A617B6808221A77E6
:104EDC007B681B68DB6903F44073002B03D0786894
:104EEC0000F036F905E0786800F029F9786800F0F0
:104EFC0038F97B6800221A777B681B681B6903F002
:104F0C000103012B0ED17B681B68DB6803F00103E6
:104F1C00012B07D17B681B686FF001021A6178685E
:104F2C00FCF704FC7B681B681B6903F08003802B77
:104F3C000ED17B681B68DB6803F08003802B07D1E4
:104F4C007B681B686FF080021A61786800F07BFA4E
:104F5C007B681B681B6903F04003402B0ED17B68F8
:104F6C001B68DB6803F04003402B07D17B681B6890
:104F7C006FF040021A61786800F0FCF87B681B68DF
:104F8C001B6903F02003202B0ED17B681B68DB68A8
:104F9C0003F02003202B07D17B681B686FF02002E5
:104FAC001A61786800F046FA00BF0837BD4680BD2C
:104FBC0080B584B000AF786039600023FB737B68E8
:104FCC0093F83C30012B01D10223B4E07B68012221
:104FDC0083F83C207B68022283F83D207B681B68A9
:104FEC009B68BB60BB6823F07703BB60BB6823F492
:104FFC007F43BB607B681B68BA689A603B681B6820
:10500C00B3F5005F3ED0B3F5005F00F28780B3F5D7
:10501C00805F00F08680B3F5805F7FD8702B1AD04C
:10502C00702B7BD8602B50D0602B77D8502B3CD07A
:10503C00502B73D8402B58D0402B6FD8302B64D0CA
:10504C00302B6BD8202B60D0202B67D8002B5CD05A
:10505C00102B5AD062E07B6818683B6899683B68F3
:10506C005A683B68DB6800F068F97B681B689B68D2
:10507C00BB60BB6843F07703BB607B681B68BA6896
:10508C009A604FE07B6818683B6899683B685A687F
:10509C003B68DB6800F051F97B681B689A687B6899
:1050AC001B6842F480429A603CE07B6818683B685D
:1050BC0059683B68DB681A4600F0C8F87B681B68C7
:1050CC005021184600F01FF92CE07B6818683B68EB
:1050DC0059683B68DB681A4600F0E6F87B681B6889
:1050EC006021184600F00FF91CE07B6818683B68DB
:1050FC0059683B68DB681A4600F0A8F87B681B68A7
:10510C004021184600F0FFF80CE07B681A683B68F9
:10511C001B681946104600F0F6F803E00123FB73F8
:10512C0000E000BF7B68012283F83D207B680022F1
:10513C0083F83C20FB7B18461037BD4680BD80B4FD
:10514C0083B000AF786000BF0C37BD4680BC7047A1
:10515C0080B483B000AF786000BF0C37BD4680BC14
:10516C00704780B483B000AF786000BF0C37BD4689
:10517C0080BC704780B483B000AF786000BF0C3740
:10518C00BD4680BC7047000080B485B000AF78602D
:10519C0039607B681B68FB607B68294A93420BD0A3
:1051AC007B68B3F1804F07D07B68264A934203D0CB
:1051BC007B68254A934208D1FB6823F07003FB609F
:1051CC003B685B68FA681343FB607B681C4A93423C
:1051DC000BD07B68B3F1804F07D07B68194A9342A0
:1051EC0003D07B68184A934208D1FB6823F44073C0
:1051FC00FB603B68DB68FA681343FB60FB6823F0D9
:10520C0080023B685B691343FB607B68FA681A6039
:10521C003B689A687B68DA623B681A687B689A62BA
:10522C007B68074A934203D13B681A697B681A630F
:10523C007B6801225A6100BF1437BD4680BC7047A1
:10524C00002C0140000400400008004080B487B0EE
:10525C0000AFF860B9607A60FB681B6A7B61FB6821
:10526C001B6A23F00102FB681A62FB689B693B61B5
:10527C003B6923F0F0033B617B681B013A691343E4
:10528C003B617B6923F00A037B617A69BB6813433A
:10529C007B61FB683A699A61FB687A691A6200BFA4
:1052AC001C37BD4680BC704780B487B000AFF86037
:1052BC00B9607A60FB681B6A7B61FB681B6A23F030
:1052CC001002FB681A62FB689B693B613B6923F423
:1052DC0070433B617B681B033A6913433B617B69F9
:1052EC0023F0A0037B61BB681B017A6913437B61CC
:1052FC00FB683A699A61FB687A691A6200BF1C37CD
:10530C00BD4680BC704780B485B000AF7860396012
:10531C007B689B68FB60FB6823F07003FB603A685A
:10532C00FB68134343F00703FB607B68FA689A60E1
:10533C0000BF1437BD4680BC704780B487B000AF47
:10534C00F860B9607A603B60FB689B687B617B6945
:10535C0023F47F437B613B681A027B681A43BB686A
:10536C0013437A6913437B61FB687A699A6000BFC7
:10537C001C37BD4680BC704780B485B000AF7860E8
:10538C0039607B6893F83C30012B01D1022346E055
:10539C007B68012283F83C207B68022283F83D2045
:1053AC007B681B685B68FB607B681B689B68BB60E9
:1053BC00FB6823F07003FB603B681B68FA681343BF
:1053CC00FB607B681B68FA685A607B681B68164A2E
:1053DC0093420ED07B681B68B3F1804F09D07B6879
:1053EC001B68124A934204D07B681B68104A934294
:1053FC000CD1BB6823F08003BB603B685B68BA6868
:10540C001343BB607B681B68BA689A607B68012297
:10541C0083F83D207B68002283F83C20002318464B
:10542C001437BD4680BC7047002C0140000400407E
:10543C000008004080B483B000AF786000BF0C3728
:10544C00BD4680BC704780B483B000AF786000BFAD
:10545C000C37BD4680BC704780B582B000AF786019
:10546C007B68002B01D1012342E07B6893F841302B
:10547C00DBB2002B06D17B68002283F840207868D1
:10548C00FDF78AF87B68242283F841207B681B682F
:10549C00DA687B681B6822F40052DA60786800F0E6
:1054AC00C5FD7B681B681A697B681B6822F49042F7
:1054BC001A617B681B685A697B681B6822F02A0298
:1054CC005A617B681B68DA687B681B6842F400527F
:1054DC00DA607B6800225A647B68202283F84120C2
:1054EC007B68202283F842207B6800225A630023C9
:1054FC0018460837BD4680BD80B58AB002AFF8604B
:10550C00B9603B601346FB8000237B61FB6893F81A
:10551C004130DBB2202B6DD1BB68002B02D0FB8855
:10552C00002B01D1012366E0FB6800225A64FB6862
:10553C00212283F84120FDF7D7F97861FB68FA88BE
:10554C009A84FB68FA88DA84FB689B68B3F5805F01
:10555C0008D1FB681B69002B04D10023FB61BB68DD
:10556C00BB6103E0BB68FB610023BB612AE03B68C5
:10557C0000937B6900228021F86800F014FB03463D
:10558C00002B01D0032336E0FB69002B0BD1BB6948
:10559C001B881A46FB681B68C2F308025A60BB6979
:1055AC000233BB6107E0FB691A78FB681B685A6021
:1055BC00FB690133FB61FB68DB8C9BB2013B9AB24C
:1055CC00FB68DA84FB68DB8C9BB2002BCFD13B6889
:1055DC0000937B6900224021F86800F0E4FA03464E
:1055EC00002B01D0032306E0FB68202283F8412026
:1055FC00002300E0022318462037BD4680BD80B54D
:10560C0084B000AFF860B9601346FB80FB6893F878
:10561C004230DBB2202B12D1BB68002B02D0FB88AE
:10562C00002B01D101230BE0FB6800221A63FB88DD
:10563C001A46B968F86800F024FB034600E0022320
:10564C0018461037BD4680BD80B5BAB000AF786043
:10565C007B681B681B68C7F8E4307B681B68DB68D9
:10566C00C7F8E0307B681B685B69C7F8DC30002347
:10567C00C7F8D8300023C7F8D430D7F8E43003F09B
:10568C000F03C7F8D830D7F8D830002B0FD1D7F884
:10569C00E43003F02003002B09D0D7F8E03003F0FE
:1056AC002003002B03D0786800F001FC5BE2D7F8F4
:1056BC00D830002B00F0DE80D7F8DC3003F001038B
:1056CC00002B06D1D7F8E03003F49073002B00F0D8
:1056DC00D180D7F8E43003F00103002B0BD0D7F8BE
:1056EC00E03003F48073002B05D07B685B6C43F0D7
:1056FC0001027B685A64D7F8E43003F00403002BF2
:10570C000BD0D7F8DC3003F00103002B05D07B68FD
:10571C005B6C43F002027B685A64D7F8E43003F008
:10572C000203002B0BD0D7F8DC3003F00103002B65
:10573C0005D07B685B6C43F004027B685A64D7F835
:10574C00E43003F00803002B11D0D7F8E03003F05D
:10575C002003002B05D1D7F8DC3003F00103002B1C
:10576C0005D07B685B6C43F008027B685A647B68ED
:10577C005B6C002B00F0F281D7F8E43003F02003CF
:10578C00002B08D0D7F8E03003F02003002B02D018
:10579C00786800F08CFB7B681B685B6903F0400346
:1057AC00002B14BF01230023DBB2C7F8D4307B6875
:1057BC005B6C03F00803002B03D1D7F8D430002B1B
:1057CC004FD0786800F096FA7B681B685B6903F031
:1057DC004003002B41D07B681B681433C7F89C3006
:1057EC00D7F89C3053E8003FC7F89830D7F898307A
:1057FC0023F04003C7F8D0307B681B681433D7F80C
:10580C00D020C7F8A820C7F8A430D7F8A410D7F830
:10581C00A82041E80023C7F8A030D7F8A030002B0F
:10582C00D9D17B68DB6B002B13D07B68DB6B7E4A9A
:10583C005A637B68DB6B1846FDF750FD0346002B63
:10584C0016D07B68DB6B5B6B7A68D26B1046984723
:10585C000EE0786800F093F90AE0786800F08FF9B0
:10586C0006E0786800F08BF97B6800225A6475E1D9
:10587C0000BF73E17B681B6B012B40F04F81D7F8A5
:10588C00E43003F01003002B00F04881D7F8E0302F
:10589C0003F01003002B00F041810023BB607B68F8
:1058AC001B681B68BB607B681B685B68BB60BB6864
:1058BC007B681B685B6903F04003002B00F0B6802B
:1058CC007B68DB6B1B685B68A7F8BE30B7F8BE3033
:1058DC00002B00F045817B689B8DB7F8BE209A4267
:1058EC0080F03E817B68B7F8BE20DA857B68DB6B85
:1058FC009B69202B00F088807B681B680C33C7F8F1
:10590C008830D7F8883053E8003FC7F88430D7F890
:10591C00843023F48073C7F8B8307B681B680C3371
:10592C00D7F8B820C7F89420C7F89030D7F8901063
:10593C00D7F8942041E80023C7F88C30D7F88C3086
:10594C00002BD9D17B681B6814337B677B6F53E8C2
:10595C00003F3B673B6F23F00103C7F8B4307B6813
:10596C001B681433D7F8B420C7F88020FB67F96F95
:10597C00D7F8802041E80023BB67BB6F002BE1D137
:10598C007B681B6814333B663B6E53E8003FFB653A
:10599C00FB6D23F04003C7F8B0307B681B681433F1
:1059AC00D7F8B020FA66BB66B96EFA6E41E80023F0
:1059BC007B667B6E002BE3D17B68202283F8422030
:1059CC007B6800221A637B681B680C33FB64FB6CDE
:1059DC0053E8003FBB64BB6C23F01003C7F8AC303A
:1059EC007B681B680C33D7F8AC20BA657B65796D86
:1059FC00BA6D41E800233B653B6D002BE3D17B681E
:105A0C00DB6B1846FDF72FFC7B6802225A637B6820
:105A1C009A8D7B68DB8D9BB2D31A9BB21946786842
:105A2C0000F0B6F89CE000BFC55D00087B689A8D5D
:105A3C007B68DB8D9BB2D31AA7F8CE307B68DB8DED
:105A4C009BB2002B00F08E80B7F8CE30002B00F00C
:105A5C0089807B681B680C33BB63BB6B53E8003FCE
:105A6C007B637B6B23F49073C7F8C8307B681B682F
:105A7C000C33D7F8C8207A643B64396C7A6C41E8F3
:105A8C000023FB63FB6B002BE3D17B681B68143397
:105A9C007B627B6A53E8003F3B623B6A23F0010365
:105AAC00C7F8C4307B681B681433D7F8C4203A633A
:105ABC00FB62F96A3A6B41E80023BB62BB6A002BBC
:105ACC00E3D17B68202283F842207B6800221A6392
