:020000040800F2
:100000000050002041250008952300089B2300088C
:10001000A1230008A7230008AD230008000000006A
:10002000000000000000000000000000B3230008F2
:10003000BF23000800000000CB230008D7230008DE
:1000400089250008892500088925000889250008D8
:10005000892500088925000889250008E323000870
:10006000F1230008FF2300080D240008892500085B
:1000700089250008892500088925000889250008A8
:100080008925000889250008892500088925000898
:100090008925000889250008892500081B240008F7
:1000A000292400083D240008512400086524000884
:1000B000792400088D240008A1240008892500085F
:1000C0008925000889250008892500088925000858
:1000D00089250008B524000889250008892500081D
:1000E00089250008892500088925000800000000EE
:1000F0000000000000000000000000000000000000
:0C01000000000000000000005FF808F1A3
:10010C0010B5054C237833B9044B13B10448AFF345
:10011C0000800123237010BD680200200000000045
:10012C005871000808B5034B1BB103490348AFF3E2
:10013C00008008BD000000006C020020587100080F
:10014C0010F8012B11F8013B012A28BF9A42F7D075
:10015C00D01A7047034613F8012B002AFBD1181A4A
:10016C0001387047F0B593B00CAF7D4B00221A608C
:10017C007C4B01221A607C4B00221A607B48FFF7F3
:10018C00E9FF03469AB20A237849794804F06CFFD8
:10019C004FF4967002F056FA00F0C2F97548FFF76A
:1001AC00D9FF03469AB20A237249714804F05CFFE6
:1001BC00642002F047FA00F0B3F96B4B00221A608E
:1001CC006D48FFF7C7FF03469AB20A236A4968488D
:1001DC0004F04AFF4FF4967002F034FA00F0A0F9E4
:1001EC00664B1B68002B03F00103B8BF5B42644AEB
:1001FC001360644B1B68002B03F00103B8BF5B4218
:10020C00614A1360614B1B68002B03F00103B8BFFC
:10021C005B425F4A13605F4B1B68002B03F00103CA
:10022C00B8BF5B425C4A13604FF480715B4803F0CB
:10023C00F5F803467B617B69012B02D100237B61BE
:10024C0001E001237B614FF48041554803F0E6F84F
:10025C0003463B613B69012B02D100233B6101E06A
:10026C0001233B614FF400414D4803F0D7F803469E
:10027C00FB60FB68012B02D10023FB6001E0012332
:10028C00FB60484B9B789C46464BDB789E46454B27
:10029C001B787B60434B5B783B60434B1B68434A4A
:1002AC0012683749096838480068394C24683A4D57
:1002BC002D68FE680A963E6909967E690896079530
:1002CC00069405900491039202933A6801927B681C
:1002DC000093734662463649364805F0D5FD3548DD
:1002EC00FFF738FF03469AB24FF4FA7331492048AE
:1002FC0004F0BAFE304804F08BFA304B00221A603E
:10030C002D4B1B6800225A6204E02C4B1B68012BFE
:10031C0000D1E4E7144B1B68002BF6D0124B0022E3
:10032C001A602748FFF716FF03469AB20A2324499E
:10033C000F4804F099FE00BF0B4B1B68002BFBD041
:10034C00074B01221A60074B00221A603C22002145
:10035C00184805F0E5FD00BF1C37BD46F0BD00BFD9
:10036C00D8040020CC040020DC040020F400002081
:10037C00580400201C01002044010020200500200E
:10038C006C050020240500207005002028050020A5
:10039C00740500202C050020780500200008014081
:1003AC00000C0140EC050020280600202C06002043
:1003BC0070710008400600201004002090060020F8
:1003CC006C01002080B500AF4A4B00221A604A4BEA
:1003DC0001221A60494B00221A604948FFF7BAFE05
:1003EC0003469AB20A234649464804F03DFE00BF34
:1003FC00424B1B68002BFBD0404B00221A6042483A
:10040C00FFF7A8FE03469AB20A233F493D4804F081
:10041C002BFE00BF394B1B68002BFBD0374B002247
:10042C001A603A48FFF796FE03469AB20A233749F8
:10043C00344804F019FE00BF304B1B68002BFBD076
:10044C002E4B00221A603248FFF784FE03469AB204
:10045C000A232F492B4804F007FE00BF274B1B68CB
:10046C00002BFBD0254B00221A602A48FFF772FEA6
:10047C0003469AB20A232749224804F0F5FD64206A
:10048C0002F0E0F82448FFF765FE03469AB20A230F
:10049C0021491C4804F0E8FD00BF184B1B68002BD9
:1004AC00FBD0144B01221A60134B00221A601B4B19
:1004BC0000221A6028220021114805F031FD282263
:1004CC0000210F4805F02CFD282200210C4805F0D6
:1004DC0027FD462200210A4805F022FD2822002192
:1004EC00074805F01DFD28220021054805F018FDE0
:1004FC0000BF80BDD8040020CC040020DC04002008
:10050C0034000020580400205C00002084000020EF
:10051C00AC00002094010020BC010020F00400205D
:10052C0080B500AF554B1B68002B03F00103B8BF1F
:10053C005B42002B02D0012B53D09DE0504B01228B
:10054C001A60504B00221A6001224FF480514E4821
:10055C0002F07BFF00224FF400514B4802F075FF74
:10056C004A4B1B68002B03F00103B8BF5B42012B05
:10057C0006D101224FF40061454802F066FF05E008
:10058C0000224FF40061424802F05FFF414B1B68B0
:10059C00002B03F00103B8BF5B42012B06D10122F3
:1005AC004FF480513A4802F050FF05E000224FF41E
:1005BC008051374802F049FF374B1B68002B03F082
:1005CC000103B8BF5B42012B05D101220121304848
:1005DC0002F03BFF50E0002201212D4802F035FFD4
:1005EC004AE0284B01221A60254B00221A60002297
:1005FC004FF48051244802F028FF01224FF400519F
:10060C00214802F022FF254B1A68254B1B689A42A1
:10061C0006DD01224FF400611D4802F016FF05E0D3
:10062C0000224FF400611A4802F00FFF1D4BDB78DB
:10063C001A461D4B1B689A4206DD01224FF480516D
:10064C00134802F002FF05E000224FF480511048DD
:10065C0002F0FBFE154B1A68154B1B689A4205DD20
:10066C00012201210A4802F0F0FE04E000220121DF
:10067C00074802F0EAFE00BF00BF80BD2C05002039
:10068C00F001002030050020000C01402005002066
:10069C000008014024050020280500202806002021
:1006AC00E4010020EC050020EC0100202C060020C9
:1006BC00E801002080B584B000AF01F061FF00F0CC
:1006CC0081FA43F6982001F0BDFF00F0E5FC00F044
:1006DC00B9FC00F07DFB00F04DFB00F0CBFB00F013
:1006EC0015FC00F0CBFA00F007FB00F05DFC0720D6
:1006FC0002F043FCB04804F0DDF8B04804F0DAF83E
:10070C000122AF49AF4804F032FDAF4804F080F845
:10071C0005F068FB05F030FB0321002005F043FBDE
:10072C00AA4805F09CFBFFF74DFEFFF7F9FEA84B1E
:10073C001B68002B10D0A64B00221A600023FB6014
:10074C0007E0A44AFB68134400221A70FB680133CB
:10075C00FB60FB68272BF4D99F4B1B68002B5DD0EB
:10076C009D4B00221A6001F001FC0A2001F06AFF87
:10077C009A499B4801F0A2FB984B9B781A46974BE1
:10078C00DB789849984805F07FFB944B1B781A4608
:10079C00924B5B789549964805F076FB954802F0AC
:1007AC004DF8322001F04EFF934802F047F832200A
:1007BC0001F048FF8F4802F01BF903461A468F4B95
:1007CC001A60322001F03EFF8B4802F011F903460B
:1007DC001A468B4B1A60322001F034FF854802F028
:1007EC00DBF8854802F0D8F8082002F0C6FB092097
:1007FC0002F0C3FB0A2002F0C0FB172002F0BDFB85
:10080C00FFF7B0FC082002F0AAFB092002F0A7FBBE
:10081C000A2002F0A4FB172002F0A1FBFFF780FED8
:10082C00784B1B68002B80D0764B00221A60764BDD
:10083C001B685A4203F0030302F0030258BF5342F1
:10084C00032B3FF672AF01A252F823F0690800089F
:10085C008B080008DF0A0008490B000805F08CFA29
:10086C000021002005F09FFA5F4805F0F8FA0021FE
:10087C00012005F098FA5E4805F0F1FA7BE1634B34
:10088C001B68002B19D0624B4FF0FF321A60614B82
:10089C0000221A60604B01221A605C4B00221A6025
:1008AC0005F06AFA0121002005F07DFA5B4805F09D
:1008BC00D6FA0021012005F076FA554B1B6801335E
:1008CC00534A1360534B1B680133524A1360514B0C
:1008DC001B68012B40F34D814E4B1B68022B02D140
:1008EC004B4B00221A604E4B1B68092B0ADC4C4BFD
:1008FC001B68002B06DB4A4B1A68454B1B68D1B2B0
:10090C00484AD154464B1B680B2B00F2DD8001A2E8
:10091C0052F823F0990900085109000859090008F8
:10092C0061090008690900087109000879090008C3
:10093C00810900088909000891090008D50A0008F6
:10094C00A1090008384805F08AFAC1E0364805F0DC
:10095C0086FABDE0344805F082FAB9E0324805F079
:10096C007EFAB5E0304805F07AFAB1E02E4805F091
:10097C0076FAADE02C4805F072FAA9E02A4805F0A9
:10098C006EFAA5E0284805F06AFAA1E0264805F0C1
:10099C0066FA9DE001233B600023BB604BE0214ADB
:1009AC00BB6813441A782149BB680B441B789A42E4
:1009BC003ED000233B6041E080030020C8030020B0
:1009CC00A00400205804002038030020A071000867
:1009DC0038060020F804002030060020EC0500202A
:1009EC0088050020AC71000800060020C0710008CA
:1009FC001406002084020020B402002028060020E7
:100A0C002C060020FC010020F80100200002002030
:100A1C0084060020880600203C060020D0710008C7
:100A2C00340600207C060020E0710008040200203F
:100A3C00BB680133BB60BB68052BB0DD00237B605A
:100A4C0007E04D4A7B68134400221A707B6801331F
:100A5C007B607B68052BF4DD3B68002B16D0474B85
:100A6C0002221A60464B01221A6005F085F9012119
:100A7C00002005F098F9434805F0F1F9424B0122AA
:100A8C001A604FF4FA6001F0DDFD21E03B4B0122CE
:100A9C001A603E4B01221A60394B01221A6005F094
:100AAC006BF90121002005F07EF9394805F0D7F9E2
:100ABC000121012005F077F9364805F0D0F94FF403
:100ACC00FA6001F0BFFD03E0334805F0C8F900BF40
:100ADC004FE005F051F90021002005F064F92F4892
:100AEC0005F0BDF90021012005F05DF92C4B1B68C8
:100AFC0003F00103002B03D02A4805F0B0F902E003
:100B0C00294805F0ACF9294B1B6803F00103002BB5
:100B1C0003D0244805F0A3F902E0234805F09FF91F
:100B2C00234B1B6803F00103002B03D01D4805F079
:100B3C0096F920E01C4805F092F91CE005F01CF930
:100B4C000521002005F02FF91A4805F088F9052138
:100B5C00012005F028F9184B1B6803F00103002B4A
:100B6C0003D0164805F07BF905E0154805F077F938
:100B7C0001E000BFD9E5D8E57C060020F801002093
:100B8C00FC010020E47100088C060020000200200B
:100B9C00F871000808720008187200081C7200082E
:100BAC00200500202C720008347200082405002057
:100BBC00280500203C7200082C0500204472000817
:100BCC004C72000880B594B000AF07F128032822BE
:100BDC000021184605F0A4F907F1140300221A604D
:100BEC005A609A60DA601A613B1D00221A605A60E2
:100BFC009A60DA600123BB624FF48033FB620023FE
:100C0C003B630123BB6302237B644FF48033BB64DF
:100C1C004FF4C013FB6407F12803184603F0E2F805
:100C2C000346002B01D001F0FFF90F237B61022357
:100C3C00BB610023FB614FF480633B6200237B624A
:100C4C0007F114030221184603F04EFB0346002B58
:100C5C0001D001F0E9F902237B604FF44043FB60C3
:100C6C003B1D184603F0CEFC0346002B01D001F0CF
:100C7C00DBF900BF5037BD4680BD000080B584B0A5
:100C8C0000AF3B1D00221A605A609A60184B194A3B
:100C9C001A60174B00229A60154B00221A73144BE2
:100CAC0000221A75124B4FF46022DA61104B0022AD
:100CBC005A600F4B01221A610D4801F0E7FC034604
:100CCC00002B01D001F0B0F906237B600123BB603F
:100CDC000023FB603B1D1946054801F095FE0346B9
:100CEC00002B01D001F0A0F900BF1037BD4680BD2C
:100CFC00840200200024014080B584B000AF3B1D6D
:100D0C0000221A605A609A60184B194A1A60174BE5
:100D1C0000229A60154B00221A73144B00221A758C
:100D2C00124B4FF46022DA61104B00225A600F4BC9
:100D3C0001221A610D4801F0A9FC0346002B01D0D9
:100D4C0001F072F907237B600123BB600023FB6079
:100D5C003B1D1946054801F057FE0346002B01D0F8
:100D6C0001F062F900BF1037BD4680BDB40200200F
:100D7C000028014080B500AF124B134A1A60114B8A
:100D8C00124A5A600F4B00229A600E4B0022DA6016
:100D9C000C4B4FF480421A610A4B00225A61094BEA
:100DAC0000229A61074B0022DA61064B00221A627C
:100DBC00044802F07BFB0346002B01D001F034F910
:100DCC0000BF80BDE402002000540040A08601005A
:100DDC0080B586B000AF07F1080300221A605A6094
:100DEC009A60DA603B4600221A605A601F4B204A18
:100DFC001A601E4B4FF6FF125A601C4B00229A6071
:100E0C001A4B42F21072DA60184B00221A61174B1F
:100E1C0000225A61154B80229A61144803F0A8FCF9
:100E2C000346002B01D001F0FFF84FF48053BB6058
:100E3C0007F1080319460D4803F072FE0346002B18
:100E4C0001D001F0F1F800233B6000237B603B46AE
:100E5C001946064804F048F80346002B01D001F06F
:100E6C00E3F800BF1837BD4680BD00BF3803002033
:100E7C00002C014080B586B000AF07F108030022BA
:100E8C001A605A609A60DA603B4600221A605A6017
:100E9C001D4B4FF080421A601B4B3F225A601A4B7D
:100EAC0000229A60184B4FF6FF72DA60164B002244
:100EBC001A61154B80229A61134803F059FC0346C2
:100ECC00002B01D001F0B0F84FF48053BB6007F158
:100EDC00080319460C4803F023FE0346002B01D0EF
:100EEC0001F0A2F800233B6000237B603B461946CF
:100EFC00054803F0F9FF0346002B01D001F094F8EC
:100F0C0000BF1837BD4680BD8003002080B586B079
:100F1C0000AF07F1080300221A605A609A60DA6089
:100F2C003B4600221A605A601D4B1E4A1A601C4B2D
:100F3C003F225A601A4B00229A60194B4FF47A7276
:100F4C00DA60174B00221A61154B80229A61144803
:100F5C0003F00EFC0346002B01D001F065F84FF4B2
:100F6C008053BB6007F1080319460D4803F0D8FD08
:100F7C000346002B01D001F057F800233B600023FF
:100F8C007B603B461946064803F0AEFF0346002B38
:100F9C0001D001F049F800BF1837BD4680BD00BF35
:100FAC00C80300200004004080B586B000AF07F1F4
:100FBC00080300221A605A609A60DA603B460022ED
:100FCC001A605A601D4B1E4A1A601C4B40225A6014
:100FDC001A4B00229A60194B4FF47A62DA60174B65
:100FEC0000221A61154B80229A61144803F0C0FB51
:100FFC000346002B01D001F017F84FF48053BB606F
:10100C0007F1080319460D4803F08AFD0346002B2F
:10101C0001D001F009F800233B6000237B603B46C4
:10102C001946064803F060FF0346002B01D000F080
:10103C00FBFF00BF1837BD4680BD00BF1004002069
:10104C000008004080B500AF114B124A1A60104BDB
:10105C004FF4E1325A600E4B00229A600C4B002286
:10106C00DA600B4B00221A61094B0C225A61084BB7
:10107C0000229A61064B0022DA61054803F0A4FFB6
:10108C000346002B01D000F0CFFF00BF80BD00BF96
:10109C00580400200038014080B588B000AF07F13B
:1010AC00100300221A605A609A60DA607C4B9B69CC
:1010BC007B4A43F010039361794B9B6903F0100357
:1010CC00FB60FB68764B9B69754A43F02003936188
:1010DC00734B9B6903F02003BB60BB68704B9B692F
:1010EC006F4A43F0040393616D4B9B6903F0040357
:1010FC007B607B686A4B9B69694A43F00803936188
:10110C00674B9B6903F008033B603B6800224FF47C
:10111C000051644802F099F9002249F60101624835
:10112C0002F093F9002243F63971604802F08DF910
:10113C004FF400533B6101237B610023BB6102230D
:10114C00FB6107F110031946564801F0E3FF40F626
:10115C0001033B6101237B610123BB610223FB6122
:10116C0007F110031946504801F0D4FF02233B61EC
:10117C004F4B7B610123BB6107F1100319464A48B1
:10118C0001F0C8FF3C233B614A4B7B610123BB61EF
:10119C0007F110031946444801F0BCFF43F23973C0
:1011AC003B6101237B610023BB610223FB6107F1DF
:1011BC00100319463D4801F0ADFF4FF400633B614D
:1011CC0001237B610223BB610223FB6107F1100346
:1011DC001946364801F09EFF4FF440433B61002313
:1011EC007B610123BB6107F1100319462F4801F005
:1011FC0091FF4FF480733B6100237B610123BB6142
:10120C0007F110031946284801F084FF4FF480536E
:10121C003B6101237B610223BB610223FB6107F16C
:10122C0010031946204801F075FF4FF400433B6151
:10123C0001237B610023BB610223FB6107F11003D7
:10124C001946194801F066FF00220221072001F01F
:10125C006AFE072001F083FE00220D21082001F018
:10126C0062FE082001F07BFE00220D21092001F016
:10127C005AFE092001F073FE00220D210A2001F014
:10128C0052FE0A2001F06BFE00220D21172001F006
:10129C004AFE172001F063FE00BF2037BD4680BD1B
:1012AC00001002400010014000080140000C0140F9
:1012BC00000031100000211080B58CB006AF7860B2
:1012CC007B681A688D4B1B689A4240F013818C4BDB
:1012DC001B68002B1AD08B4B5A788A4B1A708A4B8E
:1012EC001A78884B5A7001228749786803F03FFFBF
:1012FC00854B1B784B2B09D184498248FEF720FF84
:10130C000346002B02D1824B01221A60814B1B68D1
:10131C00002B2BD000237B610BE07B6901337E4AD1
:10132C00D15C7D4A7B6913440A461A707B69013390
:10133C007B617B69032BF0DD734B1A78764B1A714A
:10134C0076497548FEF7FCFE0346002B09D174481C
:10135C00FEF700FF03469AB20A237149786803F03E
:10136C0083FE01226849786803F001FF6D4B1B680E
:10137C00002B2BD000233B610BE03B6901336A4A05
:10138C00D15C694A3B6913440A461A703B690133C4
:10139C003B613B69052BF0DD5B4B1A78624B9A7114
:1013AC0062496148FEF7CCFE0346002B09D15C482C
:1013BC00FEF7D0FE03469AB20A235949786803F027
:1013CC0053FE01225049786803F0D1FE584B1B683C
:1013DC00002B00F08F80574B1B68002B1FD1002374
:1013EC00FB600BE0FB680133534AD15C524AFB684B
:1013FC0013440A461A70FB680133FB60FB680D2B23
:10140C00F0DD414B1A784C4B9A734C494A48FEF725
:10141C0097FE0346002B02D1464B01221A60454B26
:10142C001B68002B5ED0464B1B6800225A62444856
:10143C0003F040FA434B1B68002B41D0424B1B6816
:10144C00314A1178414AD1543F4B1B6801333E4A13
:10145C0013602D4B1B780A2B32D13B4B00221A60A8
:10146C003B4B01221A60374B00221A60394B012288
:10147C001A60304B00221A60374B01221A60374B2E
:10148C000493374B0393374B0293374B0193374BF2
:10149C000093374B374A38492C4804F015FD00238C
:1014AC00BB6007E0294ABB68134400221A70BB6872
:1014BC000133BB60BB68272BF4D9214803F0A8F992
:1014CC00114B1A782D4B1A702D492C48FEF738FE0B
:1014DC000346002B06D11E4B1B68002B02D1194B67
:1014EC0001221A601A4B00221A6001220649786800
:1014FC0003F03DFE00BF1837BD4680BD58040020E8
:10150C00CC040020A4040020A00400200C00002027
:10151C00DC040020D0040020A804002010000020CF
:10152C0000000020D4040020B0040020180000208B
:10153C00D8040020E0040020B80400202000002083
:10154C0038030020E8040020EC040020F8040020FC
:10155C00E4040020F004002038060020EC010020F8
:10156C00E8010020E40100202C05002028050020C3
:10157C00240500202005002058720008C804002013
:10158C0030000020B0B582B000AF78607B681B687B
:10159C00184A934205D1184B01221A60174B0122AD
:1015AC001A607B681B68B3F1804F08D1144BD3E9E8
:1015BC000023541C43F10005114BC3E900457B6823
:1015CC001B68104A934205D10F4B01221A600F4839
:1015DC0003F070F97B681B680D4A934205D10D48E6
:1015EC0003F068F90C4B01221A6000BF0837BD46A6
:1015FC00B0BD00BF002C014030060020F4040020D8
:10160C00F805002000040040FC010020C803002065
:10161C0000080040100400209006002080B586B021
:10162C0000AF0346FB80FB88042B40F0DF8000F00A
:10163C00FFFF0346A54A1360A44B1A68A44B1B6812
:10164C00D21AA44B1B689A4240F2D0800421A248C3
:10165C0001F0E4FE0346002B40F0C48000224FF45E
:10166C0080719E4801F0F1FE01224FF400719B48FD
:10167C0001F0EBFE01224FF48061984801F0E5FE89
:10168C0001220121954801F0E0FE0421924801F06D
:10169C00C5FE0346002B0BD1914B1B680133904ABE
:1016AC001360904B01221A608F4803F0B1F882E06E
:1016BC0001224FF48071894801F0C7FE00224FF4DB
:1016CC000071864801F0C1FE01224FF4806183480D
:1016DC0001F0BBFE01220121804801F0B6FE04217D
:1016EC007D4801F09BFE0346002B0BD17F4B1B6802
:1016FC0001337E4A13607B4B02221A607A4803F056
:10170C0087F858E001224FF48071744801F09DFE77
:10171C0001224FF40071714801F097FE00224FF442
:10172C0080616E4801F091FE012201216B4801F0AD
:10173C008CFE0421684801F071FE0346002B0BD18E
:10174C006B4B1B6801336A4A1360664B03221A60A9
:10175C00654803F05DF82EE001224FF480715F487C
:10176C0001F073FE01224FF400715C4801F06DFE34
:10177C0001224FF48061594801F067FE00220121DB
:10178C00564801F062FE0421534801F047FE03461F
:10179C00002B10D1574B1B68002B0CD0564B1B68E1
:1017AC000133554A13604F4B0A221A604E4803F01E
:1017BC002FF8FEF7B5FE00224FF48071474801F078
:1017CC0044FE00224FF40071444801F03EFE00221A
:1017DC004FF48061414801F038FE002201213F485E
:1017EC0001F033FE394B1B68394A1360FB88082B18
:1017FC0040F0FC8000F01CFF0346344A1360334B6E
:10180C001A68334B1B68D21A324B1B689A4240F24F
:10181C00ED800821304801F001FE0346002B40F01A
:10182C00E18000224FF480712C4801F00EFE012261
:10183C004FF40071294801F008FE01224FF4806139
:10184C00264801F002FE01220121244801F0FDFD91
:10185C000821214801F0E2FD0346002B0BD1274B58
:10186C001B680133254A13601E4B04221A601E4864
:10187C0002F0CEFF9FE001224FF48071174801F077
:10188C00E4FD00224FF40071144801F0DEFD01224A
:10189C004FF48061114801F0D8FD012201210F485D
:1018AC0001F0D3FD08210C4801F0B8FD0346002BD4
:1018BC0028D1134B1B680133114A1360094B0522C5
:1018CC001A60094802F0A4FF75E000BF380500203B
:1018DC0034050020F401002000080140000C0140F8
:1018EC003C05002034060020C803002040050020E1
:1018FC00440500208C06002020050020480500200F
:10190C004C05002001224FF48071854801F09DFDAB
:10191C0001224FF40071824801F097FD00224FF430
:10192C0080617F4801F091FD012201217C4801F08A
:10193C008CFD08217B4801F071FD0346002B0BD177
:10194C00794B1B680133784A1360784B06221A6076
:10195C00774802F05DFF2EE001224FF48071704851
:10196C0001F073FD01224FF400716D4801F06DFD23
:10197C0001224FF480616A4801F067FD00220121C9
:10198C00674801F062FD0821664801F047FD0346F7
:10199C00002B10D1674B1B68002B0CD0664B1B68BF
:1019AC000133654A1360614B0A221A60604802F0E9
:1019BC002FFFFEF7B5FD00224FF48071584801F05F
:1019CC0044FD00224FF40071554801F03EFD002209
:1019DC004FF48061524801F038FD0022012150483B
:1019EC0001F033FD554B1B68554A1360FB88102BD7
:1019FC0040F0FA8000F01CFE0346504A13604F4B37
:101A0C001A684F4B1B68D21A4E4B1B689A4240F215
:101A1C00EB801021434801F001FD0346002B40F000
:101A2C00DF8000224FF480713D4801F00EFD012251
:101A3C004FF400713A4801F008FD01224FF4806127
:101A4C00374801F002FD01220121354801F0FDFC6F
:101A5C001021344801F0E2FC0346002B0BD13A4B29
:101A6C001B680133384A1360304B07221A60304828
:101A7C0002F0CEFE9DE001224FF48071284801F067
:101A8C00E4FC00224FF40071254801F0DEFC012239
:101A9C004FF48061224801F0D8FC0122012120483A
:101AAC0001F0D3FC10211F4801F0B8FC0346002BB9
:101ABC000BD1264B1B680133244A13601B4B0822A5
:101ACC001A601B4802F0A4FE73E001224FF48071EF
:101ADC00134801F0BAFC01224FF40071104801F0D8
:101AEC00B4FC00224FF480610D4801F0AEFC0122E1
:101AFC0001210B4801F0A9FC10210A4801F08EFCD1
:101B0C000346002B26D1124B1B680133104A13607D
:101B1C00064B09221A60064802F07AFE49E000BF23
:101B2C00000C014000080140500500203406002044
:101B3C00C80300208C060020240500203805002056
:101B4C0034050020F4010020540500205805002025
:101B5C005C05002001224FF48071764801F075FC81
:101B6C0001224FF40071734801F06FFC01224FF415
:101B7C008061704801F069FC002201216D4801F080
:101B8C0064FC10216C4801F049FC0346002B10D179
:101B9C006A4B1B68002B0CD0694B1B680133684ADD
:101BAC001360684B0A221A60674802F031FEFEF798
:101BBC00B7FC00224FF480715E4801F046FC002215
:101BCC004FF400715B4801F040FC00224FF480613F
:101BDC00584801F03AFC00220121564801F035FC2E
:101BEC005A4B1B685A4A1360FB88202B40F0088123
:101BFC0000F01EFD0346554A1360544B1A68544BB3
:101C0C001B68D21A534B1B689A4240F2F980202170
:101C1C00494801F003FC0346002B40F0ED80002204
:101C2C004FF48071434801F010FC01224FF4007115
:101C3C00404801F00AFC01224FF480613D4801F05C
:101C4C0004FC012201213B4801F0FFFB20213A4812
:101C5C0001F0E4FB0346002B18D1384B1B68002B1A
:101C6C0000F0B3803C4B1B6801333B4A13603B4B89
:101C7C001B680133394A1360394B01221A60314B0E
:101C8C000A221A60304802F0C3FD9EE001224FF494
:101C9C008071284801F0D9FB00224FF400712548CF
:101CAC0001F0D3FB01224FF48061224801F0CDFBFF
:101CBC00012201211F4801F0C8FB20211E4801F020
:101CCC00ADFB0346002B0BD1264B1B680133254A79
:101CDC0013601C4B00221A601B4802F099FD74E043
:101CEC0001224FF48071134801F0AFFB01224FF435
:101CFC000071104801F0A9FB00224FF480610D48DF
:101D0C0001F0A3FB012201210A4801F09EFB2021D6
:101D1C00094801F083FB0346002B27D1124B1B68AB
:101D2C000133114A1360074B0B221A60064802F06C
:101D3C006FFD4AE0000C0140000801408C060020B9
:101D4C002805002034060020C80300203805002098
:101D5C0034050020F401002064050020F801002067
:101D6C0000020020600500206805002001224FF4CD
:101D7C008071444801F069FB01224FF40071414825
:101D8C0001F063FB01224FF480613E4801F05DFBE2
:101D9C00002201213B4801F058FB20213A4801F078
:101DAC003DFB0346002B10D1384B1B68002B0CD08D
:101DBC00374B1B680133364A1360364B0A221A60C4
:101DCC00354802F025FDFEF7ABFB00224FF4807185
:101DDC002C4801F03AFB00224FF40071294801F025
:101DEC0034FB00224FF48061264801F02EFB0022C8
:101DFC000121244801F029FB284B1B68284A136059
:101E0C00FB88022B3AD1274B1B685B6A264A13606E
:101E1C00254B1A68254B1B68D31A254A1360224B95
:101E2C001B68224A1360224B1A68224B1B68D1B2E2
:101E3C00214AD1541F4B1B6801331E4A13601D4BA2
:101E4C001B68542B1ADD174802F034FD072001F0F3
:101E5C0094F807F1080300221A605A609A60DA605D
:101E6C0000233B610123FB600223BB6002237B61E7
:101E7C0007F108031946044801F04CF900BF183764
:101E8C00BD4680BD000C0140000801408C060020BE
:101E9C002C05002034060020C80300203805002043
:101EAC003405002080030020800500207C050020E4
:101EBC0084050020F00500208805002080B584B042
:101ECC0000AF78603960284802F0F4FC072001F07C
:101EDC0054F80023FB600423BB603DE0FB68002B3F
:101EEC0000DA0733DB1019460A463B6813441A78AC
:101EFC003B680B445200D2B21A70BB687A68134428
:101F0C001A78BB68013379680B441B789A420DD957
:101F1C00FB68002B00DA0733DB1019460A463B68D6
:101F2C001A443B680B4412781A700FE0FB68002BC4
:101F3C0000DA0733DB1019460A463B6813441A785B
:101F4C003B680B4442F00102D2B21A70FB680133B9
:101F5C00FB60BB680233BB60BB68522BBEDD00BFAD
:101F6C0000BF1037BD4680BD8003002080B584B013
:101F7C0000AF284802F04CFC072000F0FEFF264B77
:101F8C0000221A603B4600221A605A609A60DA609E
:101F9C000123BB6000237B6002233B600223FB60B8
:101FAC003B4619461D4801F0B5F8012000F04AFBEC
:101FBC000023BB6001237B6002233B600223FB6098
:101FCC003B461946154801F0A5F80022022113489A
:101FDC0001F03BFA142000F035FB0F4B1B68002B73
:101FEC0006D10C4B1B6800225A620D4B00221A6062
:101FFC0002233B600B4B7B600123BB603B461946C5
:10200C00064801F087F8072000F0A9FF00BF103741
:10201C00BD4680BD80030020F00500200008014073
:10202C007C0500200000311080B400AF72B600BFF8
:10203C00FEE7000080B483B000AF0E4B9B690D4AE5
:10204C0043F0010393610B4B9B6903F001037B602D
:10205C007B68084BDB69074A43F08053D361054B1F
:10206C00DB6903F080533B603B6800BF0C37BD4617
:10207C0080BC70470010024080B58AB000AF786019
:10208C0007F1180300221A605A609A60DA607B68C4
:10209C001B68284A934222D1274B9B69264A43F45A
:1020AC0000739361244B9B6903F400737B617B6920
:1020BC00214B9B69204A43F0040393611E4B9B699F
:1020CC0003F004033B613B694023BB610323FB61C9
:1020DC0007F118031946194801F01CF826E07B6833
:1020EC001B68174A934221D1134B9B69124A43F444
:1020FC0080639361104B9B6903F48063FB60FB6806
:10210C000D4B9B690C4A43F0040393610A4B9B698A
:10211C0003F00403BB60BB688023BB610323FB613A
:10212C0007F118031946054800F0F4FF00BF2837E3
:10213C00BD4680BD00240140001002400008014053
:10214C000028014080B588B000AF786007F110031B
:10215C0000221A605A609A60DA607B681B68154A24
:10216C00934223D1144B9B69134A43F008039361A8
:10217C00114B9B6903F00803FB60FB68C0233B61B8
:10218C0012237B610323FB6107F1100319460B48F3
:10219C0000F0C0FF084BDB69074A43F40013D3611E
:1021AC00054BDB6903F40013BB60BB6800BF203731
:1021BC00BD4680BD0054004000100240000C0140A0
:1021CC0080B586B000AF78607B681B68404A93424C
:1021DC002CD1404B9B693F4A43F4006393613D4BC8
:1021EC009B6903F400637B617B6900220A21182040
:1021FC0000F099FE182000F0B2FE00220A211920EE
:10220C0000F091FE192000F0AAFE00220A211A20EB
:10221C0000F089FE1A2000F0A2FE00220A211B20E9
:10222C0000F081FE1B2000F09AFE4CE07B681B68DE
:10223C00B3F1804F14D1274BDB69264A43F00103DD
:10224C00D361244BDB6903F001033B613B69002242
:10225C0002211C2000F067FE1C2000F080FE32E002
:10226C007B681B681C4A934214D11A4BDB69194AD0
:10227C0043F00203D361174BDB6903F00203FB60ED
:10228C00FB68002207211D2000F04DFE1D2000F0F0
:10229C0066FE18E07B681B68104A934213D10D4B05
:1022AC00DB690C4A43F00403D3610A4BDB6903F08E
:1022BC000403BB60BB68002200211E2000F033FE2B
:1022CC001E2000F04CFE00BF1837BD4680BD00BF7D
:1022DC00002C0140001002400004004000080040A7
:1022EC0080B588B000AF786007F1100300221A6047
:1022FC005A609A60DA607B681B68204A934239D135
:10230C001F4B9B691E4A43F4804393611C4B9B6992
:10231C0003F48043FB60FB68194B9B69184A43F03C
:10232C0004039361164B9B6903F00403BB60BB6809
:10233C004FF400733B6102237B610323FB6107F1C4
:10234C00100319460F4800F0E5FE4FF480633B6123
:10235C0000237B610023BB6107F110031946094878
:10236C0000F0D8FE00220121252000F0DCFD252004
:10237C0000F0F5FD00BF2037BD4680BD00380140A0
:10238C00001002400008014080B400AFFEE780B4AA
:10239C0000AFFEE780B400AFFEE780B400AFFEE70D
:1023AC0080B400AFFEE780B400AF00BFBD4680BC78
:1023BC00704780B400AF00BFBD4680BC704780B48E
:1023CC0000AF00BFBD4680BC704780B500AF00F0C9
:1023DC001DF900BF80BD80B500AF022001F04EF8A2
:1023EC0000BF80BD80B500AF042001F047F800BFEE
:1023FC0080BD80B500AF082001F040F800BF80BD63
:10240C0080B500AF102001F039F800BF80BD80B559
:10241C0000AF202001F032F800BF80BD80B500AFC6
:10242C00024802F075FA00BF80BD00BF38030020DF
:10243C0080B500AF024802F06BFA00BF80BD00BF50
:10244C003803002080B500AF024802F061FA00BFEB
:10245C0080BD00BF3803002080B500AF024802F0F9
:10246C0057FA00BF80BD00BF3803002080B500AF15
:10247C00024802F04DFA00BF80BD00BF800300206F
:10248C0080B500AF024802F043FA00BF80BD00BF28
:10249C00C803002080B500AF024802F039FA00BF33
:1024AC0080BD00BF1004002080B500AF024802F0D0
:1024BC0083FE00BF80BD00BF5804002080B586B0ED
:1024CC0000AF7860144A154BD31A7B617B693B6172
:1024DC00134B1B68002B02D1114B124A1A60104B84
:1024EC001A687B6813443A699A4207D203F020FDBC
:1024FC0003460C221A604FF0FF3309E0084B1B68AF
:10250C00FB60074B1A687B681344054A1360FB6831
:10251C0018461837BD4680BD00500020000400004E
:10252C0094060020E807002080B400AF00BFBD4631
:10253C0080BC7047FFF7F8FF0B480C490C4A00238E
:10254C0002E0D458C4500433C4188C42F9D3094A5D
:10255C00094C002301E013600432A242FBD303F0C8
:10256C00EDFCFEF7A7F87047000000206802002081
:10257C000074000868020020E4070020FEE7000059
:10258C0080B500AF084B1B68074A43F0100313607B
:10259C00032000F0BDFC0F2000F008F8FFF74AFD07
:1025AC000023184680BD00BF0020024080B582B0D9
:1025BC0000AF7860124B1A68124B1B7819464FF417
:1025CC007A73B3FBF1F3B2FBF3F3184600F0E3FCC0
:1025DC000346002B01D001230EE07B680F2B0AD899
:1025EC00002279684FF0FF3000F09DFC064A7B68B2
:1025FC001360002300E0012318460837BD4680BD58
:10260C000C020020140200201002002080B400AF45
:10261C00054B1B781A46054B1B681344034A136081
:10262C0000BFBD4680BC70471402002098060020F5
:10263C0080B400AF024B1B681846BD4680BC704787
:10264C009806002080B584B000AF7860FFF7F0FFEB
:10265C00B8607B68FB60FB68B3F1FF3F05D00A4BA9
:10266C001B781A46FB681344FB6000BFFFF7E0FFC2
:10267C000246BB68D31AFA689A42F7D800BF00BF6B
:10268C001037BD4680BD00BF1402002080B586B057
:10269C0000AF78600023FB7500233B610023BB6017
:1026AC000023FB607B68002B01D10123BEE07B681B
:1026BC009B68002B7B689B6A002B09D17B680022EE
:1026CC00DA627B68002283F824207868FFF7D4FC58
:1026DC00786800F0EBFA0346FB757B689B6A03F0A5
:1026EC001003002B40F09980FB7D002B40F095806F
:1026FC007B689B6A23F4885323F0020343F00202A5
:10270C007B689A627B685A687B68DB691A437B68D2
:10271C001B7B5B001343BA681343BB607B689B68ED
:10272C00B3F5807F03D07B689B68012B02D14FF4FB
:10273C00807300E000233A6913433B617B681B7D87
:10274C00012B19D17B681B7B002B09D17B689B6902
:10275C00013B5A033B69134343F400633B610BE0B9
:10276C007B689B6A43F020027B689A627B68DB6A19
:10277C0043F001027B68DA627B681B685B6823F4B8
:10278C0069417B681B683A690A435A607B681B681D
:10279C009A68284B13407A681268B9680B439360A7
:1027AC007B689B68B3F5807F03D07B689B68012BAB
:1027BC0004D17B681B69013B1B05FB607B681B68B4
:1027CC00DB6A23F470017B681B68FA680A43DA62DF
:1027DC007B681B689A68184B1340BA689A420BD1F5
:1027EC007B680022DA627B689B6A23F0030343F068
:1027FC0001027B689A6218E07B689B6A23F01203E3
:10280C0043F010027B689A627B68DB6A43F001023A
:10281C007B68DA620123FB7507E07B689B6A43F0F7
:10282C0010027B689A620123FB75FB7D18461837F2
:10283C00BD4680BDFDF7E1FFFE0E1FFF80B584B0E5
:10284C0000AF78600023FB737B6893F82430012B76
:10285C0001D1022398E07B68012283F82420786858
:10286C0000F0CAF90346FB73FB7B002B40F087801A
:10287C007B689B6A23F4407323F0010343F480725A
:10288C007B689A627B681B68414A934205D1414B35
:10289C005B6803F47023002B15D17B689B6A23F4CF
:1028AC0080127B689A627B681B685B6803F48063A8
:1028BC00002B26D07B689B6A23F4405343F4805250
:1028CC007B689A621DE07B689B6A43F480127B688C
:1028DC009A627B681B682F4A934204D07B681B6802
:1028EC002B4A93420DD12B4B5B6803F48063002B76
:1028FC0007D07B689B6A23F4405343F480527B6877
:10290C009A627B689B6A03F48053002B06D07B6829
:10291C00DB6A23F006027B68DA6202E07B68002245
:10292C00DA627B68002283F824207B681B686FF0D6
:10293C0002021A607B681B689B6803F46023B3F582
:10294C00602F13D17B681B68114A934205D1114B40
:10295C005B6803F47023002B08D17B681B689A68B2
:10296C007B681B6842F4A0029A600CE07B681B68D1
:10297C009A687B681B6842F480129A6003E07B685B
:10298C00002283F82420FB7B18461037BD4680BDFF
:10299C00002801400024014080B584B000AF78606D
:1029AC000023FB737B6893F82430012B01D10223A5
:1029BC001AE07B68012283F82420786800F076F90D
:1029CC000346FB73FB7B002B09D17B689B6A23F4CA
:1029DC00885323F0010343F001027B689A627B6801
:1029EC00002283F82420FB7B18461037BD4680BD9F
:1029FC0080B483B000AF78607B681B68DB6C1846D2
:102A0C000C37BD4680BC704780B485B000AF786091
:102A1C0039600023FB730023BB607B6893F8243080
:102A2C00012B01D10223DCE07B68012283F82420F6
:102A3C003B685B68062B1CD87B681B68596B3B6832
:102A4C005A6813469B001344053B1F2202FA03F3FA
:102A5C00DB4319403B6818683B685A6813469B0077
:102A6C001344053B00FA03F27B681B680A435A6364
:102A7C003CE03B685B680C2B1CD87B681B68196BB3
:102A8C003B685A6813469B001344233B1F2202FAEF
:102A9C0003F3DB4319403B6818683B685A681346DC
:102AAC009B001344233B00FA03F27B681B680A4328
:102ABC001A631BE07B681B68D96A3B685A6813462B
:102ACC009B001344413B1F2202FA03F3DB431940E2
:102ADC003B6818683B685A6813469B001344413B9B
:102AEC0000FA03F27B681B680A43DA623B681B68D6
:102AFC00092B1CD97B681B68D9683B681A6813467C
:102B0C005B0013441E3B072202FA03F3DB4319401C
:102B1C003B6898683B681A6813465B0013441E3B7D
:102B2C0000FA03F27B681B680A43DA6019E07B68E1
:102B3C001B6819693B681A6813465B00134407222B
:102B4C0002FA03F3DB4319403B6898683B681A6848
:102B5C0013465B00134400FA03F27B681B680A43BC
:102B6C001A613B681B68102B03D03B681B68112B48
:102B7C0032D17B681B681D4A934225D17B681B6848
:102B8C009B6803F40003002B26D17B681B689A68B2
:102B9C007B681B6842F400029A603B681B68102B30
:102BAC001AD1134B1B68134AA2FB03239A0C13462E
:102BBC009B0013445B00BB6002E0BB68013BBB6045
:102BCC00BB68002BF9D107E07B689B6A43F02002BD
:102BDC007B689A620123FB737B68002283F82420B4
:102BEC00FB7B18461437BD4680BC7047002401405F
:102BFC000C02002083DE1B4380B584B000AF7860EC
:102C0C000023FB600023BB607B681B689B6803F0A0
:102C1C000103012B40D07B681B689A687B681B689A
:102C2C0042F001029A601F4B1B681F4AA2FB032350
:102C3C009B0CBB6002E0BB68013BBB60BB68002B1C
:102C4C00F9D1FFF7F5FCF8601FE0FFF7F1FC024645
:102C5C00FB68D31A022B18D97B681B689B6803F09E
:102C6C000103012B11D07B689B6A43F010027B6837
:102C7C009A627B68DB6A43F001027B68DA627B68EC
:102C8C00002283F82420012307E07B681B689B68E3
:102C9C0003F00103012BD8D1002318461037BD4691
:102CAC0080BD00BF0C02002083DE1B4380B584B0C6
:102CBC0000AF78600023FB607B681B689B6803F0A7
:102CCC000103012B2ED17B681B689A687B681B68FB
:102CDC0022F001029A60FFF7ABFCF8601BE0FFF7F3
:102CEC00A7FC0246FB68D31A022B14D97B681B681D
:102CFC009B6803F00103012B0DD17B689B6A43F0A9
:102D0C0010027B689A627B68DB6A43F001027B6885
:102D1C00DA62012307E07B681B689B6803F0010300
:102D2C00012BDCD0002318461037BD4680BD0000B7
:102D3C0080B485B000AF78607B6803F00703FB605C
:102D4C000C4BDB68BB60BA684FF6FF031340BB60EB
:102D5C00FB681A02BB68134343F0BF6343F40033B0
:102D6C00BB60044ABB68D36000BF1437BD4680BC4F
:102D7C00704700BF00ED00E080B400AF044BDB688F
:102D8C001B0A03F007031846BD4680BC704700BF02
:102D9C0000ED00E080B483B000AF0346FB7197F9FF
:102DAC000730002B0BDBFB7903F01F02064997F968
:102DBC0007305B09012000FA02F241F8232000BF22
:102DCC000C37BD4680BC704700E100E080B483B096
:102DDC0000AF0346FB7197F90730002B12DBFB7930
:102DEC0003F01F020A4997F907305B09012000FA2A
:102DFC0002F2203341F82320BFF34F8F00BFBFF303
:102E0C006F8F00BF00BF0C37BD4680BC704700BF42
:102E1C0000E100E080B483B000AF03463960FB7181
:102E2C0097F90730002B0ADB3B68DAB20C4997F9AB
:102E3C0007301201D2B20B4483F800230AE03B683E
:102E4C00DAB20849FB7903F00F03043B1201D2B24A
:102E5C000B441A7600BF0C37BD4680BC704700BFD0
:102E6C0000E100E000ED00E080B489B000AFF86054
:102E7C00B9607A60FB6803F00703FB61FB69C3F17F
:102E8C000703042B28BF0423BB61FB690433062B07
:102E9C0002D9FB69033B00E000237B614FF0FF325A
:102EAC00BB6902FA03F3DA43BB681A407B699A40A8
:102EBC004FF0FF317B6901FA03F3D9437B680B4078
:102ECC00134318462437BD4680BC704780B582B08A
:102EDC0000AF78607B68013BB3F1807F01D30123A5
:102EEC000FE00A4A7B68013B53600F214FF0FF3023
:102EFC00FFF790FF054B00229A60044B07221A60E3
:102F0C00002318460837BD4680BD00BF10E000E026
:102F1C0080B582B000AF78607868FFF709FF00BF1A
:102F2C000837BD4680BD80B586B000AF0346B9609A
:102F3C007A60FB7300237B61FFF71EFF78617A6870
:102F4C00B9687869FFF790FF024697F90F30114680
:102F5C001846FFF75FFF00BF1837BD4680BD80B530
:102F6C0082B000AF0346FB7197F907301846FFF7A4
:102F7C0011FF00BF0837BD4680BD80B582B000AFE1
:102F8C000346FB7197F907301846FFF71FFF00BF88
:102F9C000837BD4680BD80B582B000AF78607868D8
:102FAC00FFF794FF034618460837BD4680BD80B432
:102FBC0085B000AF78600023FB737B6893F82130F9
:102FCC00DBB2022B08D07B6804229A637B68002258
:102FDC0083F82020012320E07B681B681A687B683B
:102FEC001B6822F00E021A607B681B681A687B68EB
:102FFC001B6822F001021A607B681A6C7B68DB6B21
:10300C00012101FA02F25A607B68012283F8212027
:10301C007B68002283F82020FB7B18461437BD46C2
:10302C0080BC704780B584B000AF78600023FB7320
:10303C007B6893F82130DBB2022B05D07B6804222D
:10304C009A630123FB7351E07B681B681A687B68E9
:10305C001B6822F00E021A607B681B681A687B687A
:10306C001B6822F001021A607B681B68224A93429B
:10307C0029D07B681B68214A934222D07B681B684D
:10308C001F4A93421AD07B681B681E4A934212D087
:10309C007B681B681C4A93420AD07B681B681B4ADE
:1030AC00934202D14FF480130EE04FF080730BE08B
:1030BC004FF4803308E04FF4805305E04FF48073F5
:1030CC0002E0102300E00123114A53607B680122C7
:1030DC0083F821207B68002283F820207B685B6BBF
:1030EC00002B03D07B685B6B78689847FB7B18469A
:1030FC001037BD4680BD00BF080002401C000240D6
:10310C003000024044000240580002406C00024073
:10311C000000024080B48BB000AF786039600023AF
:10312C007B6200233B6269E101227B6A02FA03F3B2
:10313C00FB613B681B68FA691340BB61BA69FB69A8
:10314C009A4240F058813B685B689A4A93425ED041
:10315C00984A934275D8984A934258D0964A9342CB
:10316C006FD8964A934252D0944A934269D8944A63
:10317C0093424CD0924A934263D8924A934246D09F
:10318C00904A93425DD8122B2AD8122B59D801A2FF
:10319C0052F823F01B320008F53100080732000802
:1031AC00493200084F3200084F3200084F320008F5
:1031BC004F3200084F3200084F3200084F320008DF
:1031CC004F3200084F3200084F3200084F320008CF
:1031DC004F3200084F320008FD3100081132000850
:1031EC00794A934213D02CE03B68DB683B6229E0C0
:1031FC003B68DB6804333B6224E03B68DB680833E4
:10320C003B621FE03B68DB680C333B621AE03B68B7
:10321C009B68002B02D104233B6213E03B689B6844
:10322C00012B05D108233B627B68FA691A6109E01E
:10323C0008233B627B68FA695A6103E000233B6216
:10324C0000E000BFBB69FF2B01D87B6801E07B6805
:10325C0004337B61BB69FF2B02D87B6A9B0002E0C5
:10326C007B6A083B9B003B617B691A680F213B69B9
:10327C0001FA03F3DB431A40396A3B6901FA03F3A1
:10328C001A437B691A603B685B6803F08053002B20
:10329C0000F0B1804D4B9B694C4A43F001039361A4
:1032AC004A4B9B6903F00103BB60BB68484A7B6ACD
:1032BC009B08023352F82330FB607B6A03F0030354
:1032CC009B000F2202FA03F3DB43FA681340FB6006
:1032DC007B68404A934213D07B683F4A93420DD09F
:1032EC007B683E4A934207D07B683D4A934201D1AA
:1032FC00032306E0042304E0022302E0012300E0A0
:10330C0000237A6A02F0030292009340FA68134396
:10331C00FB602F497B6A9B080233FA6841F8232033
:10332C003B685B6803F48013002B06D02D4B9A6826
:10333C002C49BB6913438B6006E02A4B9A68BB6926
:10334C00DB43284913408B603B685B6803F4001334
:10335C00002B06D0234BDA682249BB691343CB60A0
:10336C0006E0204BDA68BB69DB431E491340CB6097
:10337C003B685B6803F40033002B06D0194B5A688A
:10338C001849BB6913434B6006E0164B5A68BB697E
:10339C00DB43144913404B603B685B6803F4803398
:1033AC00002B21D00F4B1A680E49BB6913430B60DD
:1033BC0021E000BF0000321000003110000022108C
:1033CC00000021100000121000001110001002402B
:1033DC000000014000080140000C014000100140B9
:1033EC0000140140000401400B4B1A68BB69DB431D
:1033FC00094913400B607B6A01337B623B681A6896
:10340C007B6A22FA03F3002B7FF48EAE00BF00BF61
:10341C002C37BD4680BC70470004014080B485B099
:10342C0000AF78600B467B807B689A687B88134082
:10343C00002B02D00123FB7301E00023FB73FB7B09
:10344C0018461437BD4680BC704780B483B000AFBB
:10345C0078600B467B8013467B707B78002B03D007
:10346C007A887B681A6103E07B881A047B681A618E
:10347C0000BF0C37BD4680BC7047000080B582B0E1
:10348C0000AF0346FB80084B5A69FB881340002BA6
:10349C0006D0054AFB885361FB881846FEF7BEF838
:1034AC0000BF0837BD4680BD0004014080B584B024
:1034BC0000AF78607B68002B01D101232BE17B6886
:1034CC0093F83D30DBB2002B06D17B68002283F8E9
:1034DC003C207868FEF736FE7B68242283F83D207A
:1034EC007B681B681A687B681B6822F001021A60F3
:1034FC007B681B681A687B681B6842F400421A6080
:10350C007B681B681A687B681B6822F400421A608F
:10351C0001F032F8F8607B685B68814A934207D807
:10352C00FB68804A934294BF01230023DBB206E080
:10353C00FB687D4A934294BF01230023DBB2002B2E
:10354C0001D00123E7E0FB68784AA2FB03239B0C24
:10355C00BB607B681B685B6823F03F017B681B6862
:10356C00BA680A435A607B681B681B6A23F03F01E8
:10357C007B685B686A4A934202D8BB68013309E0F6
:10358C00BB684FF4967202FB03F3694AA2FB032358
:10359C009B0901337A6812680B4313627B681B68C2
:1035AC00DB6923F44F4222F0FF027B685B685C49C5
:1035BC008B4219D8FB68591E7B685B685B00B1FBBA
:1035CC00F3F3591C40F6FC730B40002B0AD0FB683C
:1035DC00591E7B685B685B00B1FBF3F30133C3F3EB
:1035EC000B0351E004234FE07B689B68002B11D147
:1035FC00FB68581E7B6859680B465B000B44B0FB9C
:10360C00F3F30133C3F30B03002B0CBF0123002393
:10361C00DBB212E0FB68581E7B6859680B469B00B6
:10362C000B4499000B44B0FBF3F30133C3F30B03CE
:10363C00002B0CBF01230023DBB2002B01D0012394
:10364C0022E07B689B68002B0ED1FB68581E7B68C0
:10365C0059680B465B000B44B0FBF3F30133C3F327
:10366C000B0343F400430FE0FB68581E7B6859685A
:10367C000B469B000B4499000B44B0FBF3F3013356
:10368C00C3F30B0343F44043796809681343CB61DC
:10369C007B681B681B6823F0C0017B68DA697B6858
:1036AC001B6A1A437B681B680A431A607B681B6899
:1036BC009B6823F4034323F0FF037A6811697A684B
:1036CC00D26811437A6812680B4393607B681B685D
:1036DC00DB6823F0FF017B685A697B689B691A439E
:1036EC007B681B680A43DA607B681B681A687B6816
:1036FC001B6842F001021A607B6800221A647B6826
:10370C00202283F83D207B6800221A637B6800220C
:10371C0083F83E20002318461037BD4680BD00BFFD
:10372C00A08601007F841E00FF083D0083DE1B4342
:10373C00D34D621080B588B002AFF8607A601A463B
:10374C000B467B8113463B81FEF772FF7861FB6869
:10375C0093F83D30DBB2202B40F0E0807B69009386
:10376C00192301227049F86800F064F90346002B14
:10377C0001D00223D3E0FB6893F83C30012B01D13C
:10378C000223CCE0FB68012283F83C20FB681B6819
:10379C001B6803F00103012B07D0FB681B681A6838
:1037AC00FB681B6842F001021A60FB681B681A6810
:1037BC00FB681B6822F400621A60FB68212283F804
:1037CC003D20FB68102283F83E20FB6800221A641F
:1037DC00FB687A685A62FB683A895A85FB685B8D8C
:1037EC009AB2FB681A85FB68504ADA6279897B6960
:1037FC003A6AF86800F09CF80346002B01D00123CC
:10380C008DE000233B61FB681B685B693B61FB68D7
:10381C001B689B693B613B6966E07A69396AF868A9
:10382C0000F022FA0346002B0DD0FB681B6C042B16
:10383C0007D1FB681B681A68FB681B6842F40072AE
:10384C001A6001236BE0FB685B6A1A78FB681B68E3
:10385C001A61FB685B6A5A1CFB685A62FB685B8DD9
:10386C009BB2013B9AB2FB685A85FB681B8D013BEE
:10387C009AB2FB681A85FB681B685B6903F004034A
:10388C00042B1BD1FB681B8D002B17D0FB685B6ACC
:10389C001A78FB681B681A61FB685B6A5A1CFB6828
:1038AC005A62FB685B8D9BB2013B9AB2FB685A85EE
:1038BC00FB681B8D013B9AB2FB681A857A69396AE1
:1038CC00F86800F019FA0346002B0DD0FB681B6C4E
:1038DC00042B07D1FB681B681A68FB681B6842F451
:1038EC0000721A6001231AE0FB681B8D002B94D127
:1038FC00FB681B681A68FB681B6842F400721A604C
:10390C00FB68202283F83D20FB68002283F83E20D0
:10391C00FB68002283F83C20002300E002231846B9
:10392C001837BD4680BD00BF020010000000FFFF2D
:10393C0080B588B002AFF8607A603B600B467B8143
:10394C00FB68DB6A7B617B69082B06D07B69012BEA
:10395C0003D07B6913F5803F08D1FB681B681A689C
:10396C00FB681B6842F480721A600BE0FB681B6BEF
:10397C00122B07D1FB681B681A68FB681B6842F4A2
:10398C0080721A603B6800937B6800224FF0011133
:10399C00F86800F04FF80346002B0DD0FB681B684D
:1039AC001B6803F48073B3F5807F03D1FB684FF47D
:1039BC0000721A64032335E0FB681B69B3F5804F72
:1039CC0008D17B89DBB21A46FB681B6802F0FE0249
:1039DC001A611BE07B89DB11DBB203F00603DBB25F
:1039EC0063F00F03DAB2FB681B681A613B687A68F4
:1039FC000E49F86800F098F80346002B01D001231B
:103A0C0010E07B89DAB2FB681B681A613B687A6844
:103A1C000749F86800F088F80346002B01D0012311
:103A2C0000E0002318461837BD4680BD0800010091
:103A3C000200010080B584B000AFF860B9603B6053
:103A4C001346FB7148E03B68B3F1FF3F44D0FEF7EF
:103A5C00EFFD0246BB69D31A3A689A4202D33B681F
:103A6C00002B39D1BB681B0CDBB2012B0DD1FB68D1
:103A7C001B685B69DA43BB6813409BB2002B0CBF1D
:103A8C0001230023DBB21A460CE0FB681B689B6920
:103A9C00DA43BB6813409BB2002B0CBF01230023FD
:103AAC00DBB21A46FB799A4216D1FB6800221A63E4
:103ABC00FB68202283F83D20FB68002283F83E201F
:103ACC00FB681B6C43F02002FB681A64FB68002245
:103ADC0083F83C20012323E0BB681B0CDBB2012BD9
:103AEC000DD1FB681B685B69DA43BB6813409BB262
:103AFC00002B0CBF01230023DBB21A460CE0FB6841
:103B0C001B689B69DA43BB6813409BB2002B0CBF4C
:103B1C0001230023DBB21A46FB799A4293D000238F
:103B2C0018461037BD4680BD80B584B000AFF86034
:103B3C00B9607A603B6071E0FB681B685B6903F4F9
:103B4C008063B3F5806F23D1FB681B681A68FB6830
:103B5C001B6842F400721A60FB681B686FF4806289
:103B6C005A61FB6800221A63FB68202283F83D200F
:103B7C00FB68002283F83E20FB681B6C43F00402B8
:103B8C00FB681A64FB68002283F83C20012367E081
:103B9C007B68B3F1FF3F41D0FEF74AFD02463B681C
:103BAC00D31A7A689A4202D37B68002B36D1BB6851
:103BBC001B0CDBB2012B0CD1FB681B685B69DA4375
:103BCC00BB6813409BB2002B14BF01230023DBB254
:103BDC000BE0FB681B689B69DA43BB6813409BB224
:103BEC00002B14BF01230023DBB2002B16D0FB6883
:103BFC0000221A63FB68202283F83D20FB68002218
:103C0C0083F83E20FB681B6C43F02002FB681A64AF
:103C1C00FB68002283F83C20012321E0BB681B0CCD
:103C2C00DBB2012B0CD1FB681B685B69DA43BB6808
:103C3C0013409BB2002B14BF01230023DBB20BE01B
:103C4C00FB681B689B69DA43BB6813409BB2002B73
:103C5C0014BF01230023DBB2002B7FF46DAF0023D4
:103C6C0018461037BD4680BD80B584B000AFF860F3
:103C7C00B9607A6034E0F86800F086F80346002BEF
:103C8C0001D0012334E0BB68B3F1FF3F28D0FEF72D
:103C9C00CFFC02467B68D31ABA689A4202D3BB683F
:103CAC00002B1DD1FB681B685B6903F08003802B24
:103CBC0016D0FB6800221A63FB68202283F83D2093
:103CCC00FB68002283F83E20FB681B6C43F020024B
:103CDC00FB681A64FB68002283F83C20012307E090
:103CEC00FB681B685B6903F08003802BC3D1002346
:103CFC0018461037BD4680BD80B584B000AFF86063
:103D0C00B9607A6034E0F86800F03EF80346002BA6
:103D1C0001D0012334E0BB68B3F1FF3F28D0FEF79C
:103D2C0087FC02467B68D31ABA689A4202D3BB68F6
:103D3C00002B1DD1FB681B685B6903F00403042B8B
:103D4C0016D0FB6800221A63FB68202283F83D2002
:103D5C00FB68002283F83E20FB681B6C43F02002BA
:103D6C00FB681A64FB68002283F83C20012307E0FF
:103D7C00FB681B685B6903F00403042BC3D10023AD
:103D8C0018461037BD4680BD80B483B000AF786054
:103D9C007B681B685B6903F48063B3F5806F1BD190
:103DAC007B681B686FF480625A617B6800221A631F
:103DBC007B68202283F83D207B68002283F83E201C
:103DCC007B681B6C43F004027B681A647B680022DE
:103DDC0083F83C20012300E0002318460C37BD4635
:103DEC0080BC704780B586B000AF78607B68002BD4
:103DFC0001D1012372E27B681B6803F00103002BE5
:103E0C0000F08780924B5B6803F00C03042B0CD002
:103E1C008F4B5B6803F00C03082B12D18C4B5B6847
:103E2C0003F48033B3F5803F0BD1894B1B6803F44B
:103E3C000033002B6CD07B685B68002B68D10123AE
:103E4C004CE27B685B68B3F5803F06D1804B1B6806
:103E5C007F4A43F4803313602EE07B685B68002B51
:103E6C000CD17B4B1B687A4A23F480331360784B5C
:103E7C001B68774A23F4802313601DE07B685B6822
:103E8C00B3F5A02F0CD1724B1B68714A43F48023FD
:103E9C0013606F4B1B686E4A43F4803313600BE066
:103EAC006B4B1B686A4A23F480331360684B1B68A6
:103EBC00674A23F4802313607B685B68002B13D064
:103ECC00FEF7B6FB386108E0FEF7B2FB02463B6931
:103EDC00D31A642B01D9032300E25D4B1B6803F456
:103EEC000033002BF0D014E0FEF7A2FB386108E0A1
:103EFC00FEF79EFB02463B69D31A642B01D90323C0
:103F0C00ECE1534B1B6803F40033002BF0D100E0C1
:103F1C0000BF7B681B6803F00203002B63D04C4B83
:103F2C005B6803F00C03002B0BD0494B5B6803F070
:103F3C000C03082B1CD1464B5B6803F48033002B1D
:103F4C0016D1434B1B6803F00203002B05D07B6892
:103F5C001B69012B01D00123C0E13D4B1B6823F0F1
:103F6C00F8027B685B69DB00394913430B603AE06C
:103F7C007B681B69002B20D0364B01221A60FEF7A0
:103F8C0057FB386108E0FEF753FB02463B69D31A36
:103F9C00022B01D90323A1E12D4B1B6803F0020373
:103FAC00002BF0D02A4B1B6823F0F8027B685B696E
:103FBC00DB00274913430B6015E0264B00221A60E7
:103FCC00FEF736FB386108E0FEF732FB02463B6930
:103FDC00D31A022B01D9032380E11D4B1B6803F07C
:103FEC000203002BF0D17B681B6803F00803002B45
:103FFC003AD07B689B69002B19D0174B01221A60B1
:10400C00FEF716FB386108E0FEF712FB02463B692F
:10401C00D31A022B01D9032360E10D4B5B6A03F029
:10402C000203002BF0D0012000F0CEFA1CE00A4B6A
:10403C0000221A60FEF7FCFA38610FE0FEF7F8FA7E
:10404C0002463B69D31A022B08D9032346E100BF71
:10405C00001002400000424280044242924B5B6AD4
:10406C0003F00203002BE9D17B681B6803F0040307
:10407C00002B00F0A6800023FB758B4BDB6903F053
:10408C008053002B0DD1884BDB69874A43F080535A
:10409C00D361854BDB6903F08053BB60BB680123A4
:1040AC00FB75824B1B6803F48073002B18D17F4B7C
:1040BC001B687E4A43F480731360FEF7B9FA3861CB
:1040CC0008E0FEF7B5FA02463B69D31A642B01D916
:1040DC00032303E1754B1B6803F48073002BF0D0B2
:1040EC007B68DB68012B06D16F4B1B6A6E4A43F071
:1040FC00010313622DE07B68DB68002B0CD16A4B4B
:10410C001B6A694A23F001031362674B1B6A664AF8
:10411C0023F0040313621CE07B68DB68052B0CD1D5
:10412C00614B1B6A604A43F0040313625E4B1B6ACB
:10413C005D4A43F0010313620BE05B4B1B6A5A4A66
:10414C0023F001031362584B1B6A574A23F00403F4
:10415C0013627B68DB68002B15D0FEF769FA3861B7
:10416C000AE0FEF765FA02463B69D31A41F288323F
:10417C00934201D90323B1E04B4B1B6A03F00203BA
:10418C00002BEED014E0FEF753FA38610AE0FEF78C
:10419C004FFA02463B69D31A41F28832934201D955
:1041AC0003239BE0404B1B6A03F00203002BEED170
:1041BC00FB7D012B05D13C4BDB693B4A23F0805343
:1041CC00D3617B68DB69002B00F08780364B5B6822
:1041DC0003F00C03082B61D07B68DB69022B46D102
:1041EC00334B00221A60FEF723FA386108E0FEF721
:1041FC001FFA02463B69D31A022B01D903236DE047
:10420C00294B1B6803F00073002BF0D17B681B6AF1
:10421C00B3F5803F08D1244B5B6823F400327B68F4
:10422C009B68214913434B601F4B5B6823F474124A
:10423C007B68196A7B685B6A0B431B4913434B60B1
:10424C001B4B01221A60FEF7F3F9386108E0FEF708
:10425C00EFF902463B69D31A022B01D903233DE047
:10426C00114B1B6803F00073002BF0D035E0104BA2
:10427C0000221A60FEF7DCF9386108E0FEF7D8F985
:10428C0002463B69D31A022B01D9032326E0064BC5
:10429C001B6803F00073002BF0D11EE07B68DB6918
:1042AC00012B07D1012319E00010024000700040DF
:1042BC00600042420B4B5B68FB60FB6803F480328E
:1042CC007B681B6A9A4206D1FB6803F470127B6808
:1042DC005B6A9A4201D0012300E00023184618378C
:1042EC00BD4680BD0010024080B584B000AF786040
:1042FC0039607B68002B01D10123D0E06A4B1B682D
:10430C0003F007033A689A4210D9674B1B6823F0F5
:10431C00070265493B6813430B60634B1B6803F052
:10432C0007033A689A4201D00123B8E07B681B6806
:10433C0003F00203002B20D07B681B6803F00403FE
:10434C00002B05D0594B5B68584A43F4E06353602B
:10435C007B681B6803F00803002B05D0534B5B688C
:10436C00524A43F460535360504B5B6823F0F002A5
:10437C007B689B684D4913434B607B681B6803F05B
:10438C000103002B40D07B685B68012B07D1474BA6
:10439C001B6803F40033002B15D101237FE07B68ED
:1043AC005B68022B07D1414B1B6803F00073002B99
:1043BC0009D1012373E03D4B1B6803F00203002B72
:1043CC0001D101236BE0394B5B6823F003027B685E
:1043DC005B68364913434B60FEF72AF9F8600AE034
:1043EC00FEF726F90246FB68D31A41F28832934253
:1043FC0001D9032353E02D4B5B6803F00C027B685F
:10440C005B689B009A42EBD1274B1B6803F00703B8
:10441C003A689A4210D2244B1B6823F007022249B7
:10442C003B6813430B60204B1B6803F007033A688F
:10443C009A4201D0012332E07B681B6803F004032D
:10444C00002B08D0194B5B6823F4E0627B68DB68B7
:10445C00164913434B607B681B6803F00803002B61
:10446C0009D0124B5B6823F460527B681B69DB003C
:10447C000E4913434B6000F021F802460B4B5B686E
:10448C001B0903F00F030A49CB5C22FA03F3094A18
:10449C001360094B1B681846FEF788F80023184672
:1044AC001037BD4680BD00BF002002400010024006
:1044BC007C7200080C0200201002002080B487B02F
:1044CC0000AF0023FB600023BB6000237B61002353
:1044DC007B6000233B611E4B5B68FB60FB6803F059
:1044EC000C03042B02D0082B03D027E0194B3B61A3
:1044FC0027E0FB689B0C03F00F03174AD35C7B602F
:10450C00FB6803F48033002B10D0114B5B685B0C01
:10451C0003F00103114AD35CBB607B680D4A03FBBB
:10452C0002F2BB68B2FBF3F37B6104E07B680C4ADC
:10453C0002FB03F37B617B693B6102E0054B3B6152
:10454C0000BF3B6918461C37BD4680BC704700BF96
:10455C000010024000127A0094720008A472000845
:10456C0000093D0080B400AF024B1B681846BD46E5
:10457C0080BC70470C02002080B500AFFFF7F2FF43
:10458C000246054B5B681B0A03F007030349CB5C2F
:10459C0022FA03F3184680BD001002408C7200080A
:1045AC0080B500AFFFF7DEFF0246054B5B68DB0A08
:1045BC0003F007030349CB5C22FA03F3184680BDD2
:1045CC00001002408C72000880B485B000AF786097
:1045DC000A4B1B680A4AA2FB03235B0A7A6802FB9C
:1045EC0003F3FB6000BFFB685A1EFA60002BF9D185
:1045FC0000BF00BF1437BD4680BC70470C020020C2
:10460C00D34D621080B586B000AF786000233B615B
:10461C000023FB607B681B6803F00103002B7DD03B
:10462C000023FB754F4BDB6903F08053002B0DD13E
:10463C004C4BDB694B4A43F08053D361494BDB69EC
:10464C0003F08053BB60BB680123FB75464B1B68B2
:10465C0003F48073002B18D1434B1B68424A43F47C
:10466C0080731360FDF7E4FF386108E0FDF7E0FFAD
:10467C0002463B69D31A642B01D903236DE03A4BF4
:10468C001B6803F48073002BF0D0364B1B6A03F4C9
:10469C004073FB60FB68002B2ED07B685B6803F4D7
:1046AC004073FA689A4227D02E4B1B6A23F440734E
:1046BC00FB602E4B01221A602C4B00221A60294AF7
:1046CC00FB681362FB6803F00103002B14D0FDF7A9
:1046DC00AFFF38610AE0FDF7ABFF02463B69D31A26
:1046EC0041F28832934201D9032336E01D4B1B6AF9
:1046FC0003F00203002BEED01A4B1B6A23F440721A
:10470C007B685B68174913430B62FB7D012B05D15A
:10471C00144BDB69134A23F08053D3617B681B680D
:10472C0003F00203002B08D00E4B5B6823F44042CD
:10473C007B689B680B4913434B607B681B6803F0D9
:10474C001003002B08D0074B5B6823F480027B68B6
:10475C00DB68044913434B60002318461837BD46E9
:10476C0080BD00BF00100240007000404004424277
:10477C0080B582B000AF78607B68002B01D101233B
:10478C0041E07B6893F83D30DBB2002B06D17B68AF
:10479C00002283F83C207868FDF712FD7B6802222A
:1047AC0083F83D207B681A687B68043319461046F1
:1047BC0000F0A2FA7B68012283F846207B68012274
:1047CC0083F83E207B68012283F83F207B6801221E
:1047DC0083F840207B68012283F841207B6801220A
:1047EC0083F842207B68012283F843207B680122F6
:1047FC0083F844207B68012283F845207B680122E2
:10480C0083F83D20002318460837BD4680BD0000C4
:10481C0080B485B000AF78607B6893F83D30DBB234
:10482C00012B01D001233AE07B68022283F83D2062
:10483C007B681B68DA687B681B6842F00102DA60EF
:10484C007B681B68184A93420ED07B681B68B3F1D7
:10485C00804F09D07B681B68144A934204D07B6854
:10486C001B68134A934211D17B681B689B6803F049
:10487C000703FB60FB68062B10D07B681B681A686B
:10488C007B681B6842F001021A6007E07B681B68BA
:10489C001A687B681B6842F001021A6000231846F4
:1048AC001437BD4680BC7047002C0140000400400A
:1048BC000008004080B483B000AF78607B681B6850
:1048CC00DA687B681B6822F00102DA607B681B687F
:1048DC001A6A41F211131340002B0FD17B681B682D
:1048EC001A6A40F244431340002B07D17B681B68C3
:1048FC001A687B681B6822F001021A607B6801222F
:10490C0083F83D20002318460C37BD4680BC704709
:10491C0080B582B000AF78607B681B681B6903F0C0
:10492C000203022B22D17B681B68DB6803F00203B5
:10493C00022B1BD17B681B686FF002021A617B682B
:10494C0001221A777B681B689B6903F00303002B19
:10495C0003D0786800F0B4F905E0786800F0A7F9A6
:10496C00786800F0B6F97B6800221A777B681B68C0
:10497C001B6903F00403042B22D17B681B68DB68E2
:10498C0003F00403042B1BD17B681B686FF004023B
:10499C001A617B6802221A777B681B689B6903F497
:1049AC004073002B03D0786800F08AF905E0786832
:1049BC0000F07DF9786800F08CF97B6800221A779A
:1049CC007B681B681B6903F00803082B22D17B68EA
:1049DC001B68DB6803F00803082B1BD17B681B6882
:1049EC006FF008021A617B6804221A777B681B68D7
:1049FC00DB6903F00303002B03D0786800F060F947
:104A0C0005E0786800F053F9786800F062F97B688B
:104A1C0000221A777B681B681B6903F01003102BAC
:104A2C0022D17B681B68DB6803F01003102B1BD1B1
:104A3C007B681B686FF010021A617B6808221A777A
:104A4C007B681B68DB6903F44073002B03D0786828
:104A5C0000F036F905E0786800F029F9786800F084
:104A6C0038F97B6800221A777B681B681B6903F096
:104A7C000103012B0ED17B681B68DB6803F001037B
:104A8C00012B07D17B681B686FF001021A617868F3
:104A9C00FCF778FD7B681B681B6903F08003802B97
:104AAC000ED17B681B68DB6803F08003802B07D179
:104ABC007B681B686FF080021A61786800F07BFAE3
:104ACC007B681B681B6903F04003402B0ED17B688D
:104ADC001B68DB6803F04003402B07D17B681B6825
:104AEC006FF040021A61786800F0FCF87B681B6874
:104AFC001B6903F02003202B0ED17B681B68DB683D
:104B0C0003F02003202B07D17B681B686FF0200279
:104B1C001A61786800F046FA00BF0837BD4680BDC0
:104B2C0080B584B000AF786039600023FB737B687C
:104B3C0093F83C30012B01D10223B4E07B680122B5
:104B4C0083F83C207B68022283F83D207B681B683D
:104B5C009B68BB60BB6823F07703BB60BB6823F426
:104B6C007F43BB607B681B68BA689A603B681B68B4
:104B7C00B3F5005F3ED0B3F5005F00F28780B3F56C
:104B8C00805F00F08680B3F5805F7FD8702B1AD0E1
:104B9C00702B7BD8602B50D0602B77D8502B3CD00F
:104BAC00502B73D8402B58D0402B6FD8302B64D05F
:104BBC00302B6BD8202B60D0202B67D8002B5CD0EF
:104BCC00102B5AD062E07B6818683B6899683B6888
:104BDC005A683B68DB6800F068F97B681B689B6867
:104BEC00BB60BB6843F07703BB607B681B68BA682B
:104BFC009A604FE07B6818683B6899683B685A6814
:104C0C003B68DB6800F051F97B681B689A687B682D
:104C1C001B6842F480429A603CE07B6818683B68F1
:104C2C0059683B68DB681A4600F0C8F87B681B685B
:104C3C005021184600F01FF92CE07B6818683B687F
:104C4C0059683B68DB681A4600F0E6F87B681B681D
:104C5C006021184600F00FF91CE07B6818683B686F
:104C6C0059683B68DB681A4600F0A8F87B681B683B
:104C7C004021184600F0FFF80CE07B681A683B688E
:104C8C001B681946104600F0F6F803E00123FB738D
:104C9C0000E000BF7B68012283F83D207B68002286
:104CAC0083F83C20FB7B18461037BD4680BD80B492
:104CBC0083B000AF786000BF0C37BD4680BC704736
:104CCC0080B483B000AF786000BF0C37BD4680BCA9
:104CDC00704780B483B000AF786000BF0C37BD461E
:104CEC0080BC704780B483B000AF786000BF0C37D5
:104CFC00BD4680BC7047000080B485B000AF7860C2
:104D0C0039607B681B68FB607B68294A93420BD037
:104D1C007B68B3F1804F07D07B68264A934203D05F
:104D2C007B68254A934208D1FB6823F07003FB6033
:104D3C003B685B68FA681343FB607B681C4A9342D0
:104D4C000BD07B68B3F1804F07D07B68194A934234
:104D5C0003D07B68184A934208D1FB6823F4407354
:104D6C00FB603B68DB68FA681343FB60FB6823F06D
:104D7C0080023B685B691343FB607B68FA681A60CE
:104D8C003B689A687B68DA623B681A687B689A624F
:104D9C007B68074A934203D13B681A697B681A63A4
:104DAC007B6801225A6100BF1437BD4680BC704736
:104DBC00002C0140000400400008004080B487B083
:104DCC0000AFF860B9607A60FB681B6A7B61FB68B6
:104DDC001B6A23F00102FB681A62FB689B693B614A
:104DEC003B6923F0F0033B617B681B013A69134379
:104DFC003B617B6923F00A037B617A69BB681343CF
:104E0C007B61FB683A699A61FB687A691A6200BF38
:104E1C001C37BD4680BC704780B487B000AFF860CB
:104E2C00B9607A60FB681B6A7B61FB681B6A23F0C4
:104E3C001002FB681A62FB689B693B613B6923F4B7
:104E4C0070433B617B681B033A6913433B617B698D
:104E5C0023F0A0037B61BB681B017A6913437B6160
:104E6C00FB683A699A61FB687A691A6200BF1C3761
:104E7C00BD4680BC704780B485B000AF78603960A7
:104E8C007B689B68FB60FB6823F07003FB603A68EF
:104E9C00FB68134343F00703FB607B68FA689A6076
:104EAC0000BF1437BD4680BC704780B487B000AFDC
:104EBC00F860B9607A603B60FB689B687B617B69DA
:104ECC0023F47F437B613B681A027B681A43BB68FF
:104EDC0013437A6913437B61FB687A699A6000BF5C
:104EEC001C37BD4680BC704780B485B000AF78607D
:104EFC0039607B6893F83C30012B01D1022346E0EA
:104F0C007B68012283F83C207B68022283F83D20D9
:104F1C007B681B685B68FB607B681B689B68BB607D
:104F2C00FB6823F07003FB603B681B68FA68134353
:104F3C00FB607B681B68FA685A607B681B68164AC2
:104F4C0093420ED07B681B68B3F1804F09D07B680D
:104F5C001B68124A934204D07B681B68104A934228
:104F6C000CD1BB6823F08003BB603B685B68BA68FC
:104F7C001343BB607B681B68BA689A607B6801222C
:104F8C0083F83D207B68002283F83C2000231846E0
:104F9C001437BD4680BC7047002C01400004004013
:104FAC000008004080B483B000AF786000BF0C37BD
:104FBC00BD4680BC704780B483B000AF786000BF42
:104FCC000C37BD4680BC704780B582B000AF7860AE
:104FDC007B68002B01D1012342E07B6893F84130C0
:104FEC00DBB2002B06D17B68002283F84020786866
:104FFC00FDF776F97B68242283F841207B681B68D7
:10500C00DA687B681B6822F40052DA60786800F07A
:10501C00C5FD7B681B681A697B681B6822F490428B
:10502C001A617B681B685A697B681B6822F02A022C
:10503C005A617B681B68DA687B681B6842F4005213
:10504C00DA607B6800225A647B68202283F8412056
:10505C007B68202283F842207B6800225A6300235D
:10506C0018460837BD4680BD80B58AB002AFF860DF
:10507C00B9603B601346FB8000237B61FB6893F8AF
:10508C004130DBB2202B6DD1BB68002B02D0FB88EA
:10509C00002B01D1012366E0FB6800225A64FB68F7
:1050AC00212283F84120FDF7C3FA7861FB68FA8866
:1050BC009A84FB68FA88DA84FB689B68B3F5805F96
:1050CC0008D1FB681B69002B04D10023FB61BB6872
:1050DC00BB6103E0BB68FB610023BB612AE03B685A
:1050EC0000937B6900228021F86800F014FB0346D2
:1050FC00002B01D0032336E0FB69002B0BD1BB69DD
:10510C001B881A46FB681B68C2F308025A60BB690D
:10511C000233BB6107E0FB691A78FB681B685A60B5
:10512C00FB690133FB61FB68DB8C9BB2013B9AB2E0
:10513C00FB68DA84FB68DB8C9BB2002BCFD13B681D
:10514C0000937B6900224021F86800F0E4FA0346E2
:10515C00002B01D0032306E0FB68202283F84120BA
:10516C00002300E0022318462037BD4680BD80B5E1
:10517C0084B000AFF860B9601346FB80FB6893F80D
:10518C004230DBB2202B12D1BB68002B02D0FB8843
:10519C00002B01D101230BE0FB6800221A63FB8872
:1051AC001A46B968F86800F024FB034600E00223B5
:1051BC0018461037BD4680BD80B5BAB000AF7860D8
:1051CC007B681B681B68C7F8E4307B681B68DB686E
:1051DC00C7F8E0307B681B685B69C7F8DC300023DC
:1051EC00C7F8D8300023C7F8D430D7F8E43003F030
:1051FC000F03C7F8D830D7F8D830002B0FD1D7F819
:10520C00E43003F02003002B09D0D7F8E03003F092
:10521C002003002B03D0786800F001FC5BE2D7F888
:10522C00D830002B00F0DE80D7F8DC3003F001031F
:10523C00002B06D1D7F8E03003F49073002B00F06C
:10524C00D180D7F8E43003F00103002B0BD0D7F852
:10525C00E03003F48073002B05D07B685B6C43F06B
:10526C0001027B685A64D7F8E43003F00403002B86
:10527C000BD0D7F8DC3003F00103002B05D07B6892
:10528C005B6C43F002027B685A64D7F8E43003F09D
:10529C000203002B0BD0D7F8DC3003F00103002BFA
:1052AC0005D07B685B6C43F004027B685A64D7F8CA
:1052BC00E43003F00803002B11D0D7F8E03003F0F2
:1052CC002003002B05D1D7F8DC3003F00103002BB1
:1052DC0005D07B685B6C43F008027B685A647B6882
:1052EC005B6C002B00F0F281D7F8E43003F0200364
:1052FC00002B08D0D7F8E03003F02003002B02D0AD
:10530C00786800F08CFB7B681B685B6903F04003DA
:10531C00002B14BF01230023DBB2C7F8D4307B6809
:10532C005B6C03F00803002B03D1D7F8D430002BAF
:10533C004FD0786800F096FA7B681B685B6903F0C5
:10534C004003002B41D07B681B681433C7F89C309A
:10535C00D7F89C3053E8003FC7F89830D7F898300E
:10536C0023F04003C7F8D0307B681B681433D7F8A0
:10537C00D020C7F8A820C7F8A430D7F8A410D7F8C5
:10538C00A82041E80023C7F8A030D7F8A030002BA4
:10539C00D9D17B68DB6B002B13D07B68DB6B7E4A2F
:1053AC005A637B68DB6B1846FDF73CFE0346002B0B
:1053BC0016D07B68DB6B5B6B7A68D26B10469847B8
:1053CC000EE0786800F093F90AE0786800F08FF945
:1053DC0006E0786800F08BF97B6800225A6475E16E
:1053EC0000BF73E17B681B6B012B40F04F81D7F83A
:1053FC00E43003F01003002B00F04881D7F8E030C4
:10540C0003F01003002B00F041810023BB607B688C
:10541C001B681B68BB607B681B685B68BB60BB68F8
:10542C007B681B685B6903F04003002B00F0B680BF
:10543C007B68DB6B1B685B68A7F8BE30B7F8BE30C7
:10544C00002B00F045817B689B8DB7F8BE209A42FB
:10545C0080F03E817B68B7F8BE20DA857B68DB6B19
:10546C009B69202B00F088807B681B680C33C7F885
:10547C008830D7F8883053E8003FC7F88430D7F825
:10548C00843023F48073C7F8B8307B681B680C3306
:10549C00D7F8B820C7F89420C7F89030D7F89010F8
:1054AC00D7F8942041E80023C7F88C30D7F88C301B
:1054BC00002BD9D17B681B6814337B677B6F53E857
:1054CC00003F3B673B6F23F00103C7F8B4307B68A8
:1054DC001B681433D7F8B420C7F88020FB67F96F2A
:1054EC00D7F8802041E80023BB67BB6F002BE1D1CC
:1054FC007B681B6814333B663B6E53E8003FFB65CF
:10550C00FB6D23F04003C7F8B0307B681B68143385
:10551C00D7F8B020FA66BB66B96EFA6E41E8002384
:10552C007B667B6E002BE3D17B68202283F84220C4
:10553C007B6800221A637B681B680C33FB64FB6C72
:10554C0053E8003FBB64BB6C23F01003C7F8AC30CE
:10555C007B681B680C33D7F8AC20BA657B65796D1A
:10556C00BA6D41E800233B653B6D002BE3D17B68B2
:10557C00DB6B1846FDF71BFD7B6802225A637B68C8
:10558C009A8D7B68DB8D9BB2D31A9BB219467868D7
:10559C0000F0B6F89CE000BF355900087B689A8D86
:1055AC007B68DB8D9BB2D31AA7F8CE307B68DB8D82
:1055BC009BB2002B00F08E80B7F8CE30002B00F0A1
:1055CC0089807B681B680C33BB63BB6B53E8003F63
:1055DC007B637B6B23F49073C7F8C8307B681B68C4
:1055EC000C33D7F8C8207A643B64396C7A6C41E888
:1055FC000023FB63FB6B002BE3D17B681B6814332C
:10560C007B627B6A53E8003F3B623B6A23F00103F9
:10561C00C7F8C4307B681B681433D7F8C4203A63CE
:10562C00FB62F96A3A6B41E80023BB62BB6A002B50
:10563C00E3D17B68202283F842207B6800221A6326
:10564C007B681B680C333B613B6953E8003FFB6094
:10565C00FB6823F01003C7F8C0307B681B680C3361
:10566C00D7F8C020FA61BB61B969FA6941E8002337
:10567C007B617B69002BE3D17B6802225A63B7F80C
:10568C00CE301946786800F03BF823E0D7F8E430C8
:10569C0003F08003002B09D0D7F8E03003F080032F
:1056AC00002B03D0786800F053F914E0D7F8E430FD
:1056BC0003F04003002B0ED0D7F8E03003F040038A
:1056CC00002B08D0786800F092F904E000BF02E0EB
:1056DC0000BF00E000BFE837BD4680BD80B483B09A
:1056EC0000AF786000BF0C37BD4680BC704780B4FB
:1056FC0083B000AF786000BF0C37BD4680BC7047EC
:10570C0080B483B000AF78600B467B8000BF0C3751
:10571C00BD4680BC704780B590B000AFF860B960F2
:10572C003B601346FB7150E0BB6CB3F1FF3F4CD0B8
:10573C00BB6C002B07D0FCF77BFF02463B68D31AEF
:10574C00BA6C9A4241D2FB681B680C33BB62BB6AD1
:10575C0053E8003F7B627B6A23F4D073FB63FB68E6
:10576C001B680C33FA6B7A633B63396B7A6B41E8D9
:10577C000023FB62FB6A002BE5D1FB681B6814332A
:10578C007B617B6953E8003F3B613B6923F001037C
:10579C00BB63FB681B681433BA6B3A62FB61F96933
:1057AC003A6A41E80023BB61BB69002BE5D1FB6879
:1057BC00202283F84120FB68202283F84220FB68DA
:1057CC00002283F8402003230FE0FB681B681A6853
:1057DC00BB681340BA689A420CBF01230023DBB2AA
:1057EC001A46FB799A429FD0002318464037BD4693
:1057FC0080BD80B485B000AFF860B9601346FB8003
:10580C00FB68BA689A62FB68FA889A85FB68FA8822
:10581C00DA85FB6800225A64FB68222283F8422056
:10582C00FB681B69002B07D0FB681B68DA68FB68F8
:10583C001B6842F48072DA60FB681B685A69FB686B
:10584C001B6842F001025A61FB681B68DA68FB684E
:10585C001B6842F02002DA60002318461437BD465C
:10586C0080BC704780B495B000AF78607B681B68D3
:10587C000C337B637B6B53E8003F3B633B6B23F444
:10588C009073FB647B681B680C33FA6C3A64FB63A3
:10589C00F96B3A6C41E80023BB63BB6B002BE5D181
:1058AC007B681B6814333B623B6A53E8003FFB6127
:1058BC00FB6923F00103BB647B681B681433BA6C6F
:1058CC00FA62BB62B96AFA6A41E800237B627B6ABE
:1058DC00002BE5D17B681B6B012B19D17B681B68F6
:1058EC000C33FB60FB6853E8003FBB60BB6823F0E4
:1058FC0010037B647B681B680C337A6CBA617B6128
:10590C007969BA6941E800233B613B69002BE5D119
:10591C007B68202283F842207B6800221A6300BF38
:10592C005437BD4680BC704780B584B000AF7860FA
:10593C007B685B6AFB60FB680022DA85FB680022EF
:10594C00DA84F868FFF7D3FE00BF1037BD4680BD80
:10595C0080B485B000AF78607B6893F84130DBB2DF
:10596C00212B3ED17B689B68B3F5805F14D17B689B
:10597C001B69002B10D17B681B6AFB60FB681B88C2
:10598C001A467B681B68C2F308025A607B681B6A64
:10599C009A1C7B681A6208E07B681B6A591C7A683F
:1059AC0011621A787B681B685A607B68DB8C9BB22F
:1059BC00013B9BB27A681946D184002B0FD17B68CE
:1059CC001B68DA687B681B6822F08002DA607B68EF
:1059DC001B68DA687B681B6842F04002DA600023BF
:1059EC0000E0022318461437BD4680BC704780B5D2
:1059FC0082B000AF78607B681B68DA687B681B68D4
:105A0C0022F04002DA607B68202283F8412078681B
:105A1C00FFF764FE002318460837BD4680BD80B5ED
:105A2C008CB000AF78607B6893F84230DBB2222BED
:105A3C0040F0AE807B689B68B3F5805F17D17B68C4
:105A4C001B69002B13D10023FB627B689B6ABB6232
:105A5C007B681B685B689BB2C3F308039AB2BB6A92
:105A6C001A807B689B6A9A1C7B689A6226E07B682A
:105A7C009B6AFB620023BB627B689B68B3F5805F0B
:105A8C0007D07B689B68002B0AD17B681B69002BB5
:105A9C0006D17B681B685B68DAB2FB6A1A7008E097
:105AAC007B681B685B68DBB203F07F03DAB2FB6ACE
:105ABC001A707B689B6A5A1C7B689A627B68DB8DC8
:105ACC009BB2013B9BB27A681946D185002B5DD104
